{
	"Betting.sol": {
		"DistributedBetting": {
			"abi": [
				{
					"inputs": [],
					"stateMutability": "nonpayable",
					"type": "constructor"
				},
				{
					"inputs": [],
					"name": "PRICE",
					"outputs": [
						{
							"internalType": "uint256",
							"name": "",
							"type": "uint256"
						}
					],
					"stateMutability": "view",
					"type": "function"
				},
				{
					"inputs": [
						{
							"internalType": "bytes32",
							"name": "stake",
							"type": "bytes32"
						},
						{
							"internalType": "uint256",
							"name": "amount",
							"type": "uint256"
						}
					],
					"name": "bet",
					"outputs": [],
					"stateMutability": "nonpayable",
					"type": "function"
				},
				{
					"inputs": [
						{
							"internalType": "bytes32",
							"name": "NFT_hash",
							"type": "bytes32"
						}
					],
					"name": "buy_NFT",
					"outputs": [],
					"stateMutability": "payable",
					"type": "function"
				},
				{
					"inputs": [
						{
							"internalType": "bytes32",
							"name": "NFT_hash",
							"type": "bytes32"
						},
						{
							"internalType": "uint256",
							"name": "superTokenPrice",
							"type": "uint256"
						}
					],
					"name": "forge_NFT",
					"outputs": [],
					"stateMutability": "nonpayable",
					"type": "function"
				},
				{
					"inputs": [
						{
							"internalType": "bytes32",
							"name": "NFT_hash",
							"type": "bytes32"
						},
						{
							"internalType": "uint256",
							"name": "ethPrice",
							"type": "uint256"
						}
					],
					"name": "get_NFT",
					"outputs": [],
					"stateMutability": "nonpayable",
					"type": "function"
				},
				{
					"inputs": [],
					"name": "mint",
					"outputs": [],
					"stateMutability": "payable",
					"type": "function"
				},
				{
					"inputs": [
						{
							"internalType": "address",
							"name": "winner",
							"type": "address"
						},
						{
							"internalType": "uint256",
							"name": "amount",
							"type": "uint256"
						}
					],
					"name": "pay4win",
					"outputs": [],
					"stateMutability": "nonpayable",
					"type": "function"
				},
				{
					"inputs": [
						{
							"internalType": "bytes32",
							"name": "NFT_hash",
							"type": "bytes32"
						},
						{
							"internalType": "uint256",
							"name": "ethPrice",
							"type": "uint256"
						}
					],
					"name": "sell_NFT",
					"outputs": [],
					"stateMutability": "nonpayable",
					"type": "function"
				}
			],
			"devdoc": {
				"kind": "dev",
				"methods": {},
				"version": 1
			},
			"evm": {
				"assembly": "    /* \"Betting.sol\":69:4055  contract DistributedBetting... */\n  mstore(0x40, 0x80)\n    /* \"Betting.sol\":952:1016  constructor()... */\n  callvalue\n  dup1\n  iszero\n  tag_1\n  jumpi\n  0x00\n  dup1\n  revert\ntag_1:\n  pop\n    /* \"Betting.sol\":998:1008  msg.sender */\n  caller\n    /* \"Betting.sol\":980:987  creator */\n  0x00\n  dup1\n    /* \"Betting.sol\":980:1009  creator = payable(msg.sender) */\n  0x0100\n  exp\n  dup2\n  sload\n  dup2\n  0xffffffffffffffffffffffffffffffffffffffff\n  mul\n  not\n  and\n  swap1\n  dup4\n  0xffffffffffffffffffffffffffffffffffffffff\n  and\n  mul\n  or\n  swap1\n  sstore\n  pop\n    /* \"Betting.sol\":69:4055  contract DistributedBetting... */\n  dataSize(sub_0)\n  dup1\n  dataOffset(sub_0)\n  0x00\n  codecopy\n  0x00\n  return\nstop\n\nsub_0: assembly {\n        /* \"Betting.sol\":69:4055  contract DistributedBetting... */\n      mstore(0x40, 0x80)\n      jumpi(tag_1, lt(calldatasize, 0x04))\n      shr(0xe0, calldataload(0x00))\n      dup1\n      0x50e16eb5\n      gt\n      tag_10\n      jumpi\n      dup1\n      0x50e16eb5\n      eq\n      tag_6\n      jumpi\n      dup1\n      0x540d0de7\n      eq\n      tag_7\n      jumpi\n      dup1\n      0x640238b4\n      eq\n      tag_8\n      jumpi\n      dup1\n      0x8d859f3e\n      eq\n      tag_9\n      jumpi\n      jump(tag_1)\n    tag_10:\n      dup1\n      0x1249c58b\n      eq\n      tag_2\n      jumpi\n      dup1\n      0x26a88685\n      eq\n      tag_3\n      jumpi\n      dup1\n      0x2866a38b\n      eq\n      tag_4\n      jumpi\n      dup1\n      0x3f8c6138\n      eq\n      tag_5\n      jumpi\n    tag_1:\n      0x00\n      dup1\n      revert\n        /* \"Betting.sol\":1022:1350  function mint() external payable... */\n    tag_2:\n      tag_11\n      tag_12\n      jump\t// in\n    tag_11:\n      stop\n        /* \"Betting.sol\":1806:2107  function forge_NFT(bytes32 NFT_hash, uint superTokenPrice) external... */\n    tag_3:\n      callvalue\n      dup1\n      iszero\n      tag_13\n      jumpi\n      0x00\n      dup1\n      revert\n    tag_13:\n      pop\n      tag_14\n      0x04\n      dup1\n      calldatasize\n      sub\n      dup2\n      add\n      swap1\n      tag_15\n      swap2\n      swap1\n      tag_16\n      jump\t// in\n    tag_15:\n      tag_17\n      jump\t// in\n    tag_14:\n      stop\n        /* \"Betting.sol\":3873:4008  function pay4win(address winner, uint amount) external... */\n    tag_4:\n      callvalue\n      dup1\n      iszero\n      tag_18\n      jumpi\n      0x00\n      dup1\n      revert\n    tag_18:\n      pop\n      tag_19\n      0x04\n      dup1\n      calldatasize\n      sub\n      dup2\n      add\n      swap1\n      tag_20\n      swap2\n      swap1\n      tag_21\n      jump\t// in\n    tag_20:\n      tag_22\n      jump\t// in\n    tag_19:\n      stop\n        /* \"Betting.sol\":2113:2989  function get_NFT(bytes32 NFT_hash, uint ethPrice) external... */\n    tag_5:\n      callvalue\n      dup1\n      iszero\n      tag_23\n      jumpi\n      0x00\n      dup1\n      revert\n    tag_23:\n      pop\n      tag_24\n      0x04\n      dup1\n      calldatasize\n      sub\n      dup2\n      add\n      swap1\n      tag_25\n      swap2\n      swap1\n      tag_16\n      jump\t// in\n    tag_25:\n      tag_26\n      jump\t// in\n    tag_24:\n      stop\n        /* \"Betting.sol\":3359:3867  function buy_NFT(bytes32 NFT_hash) payable external... */\n    tag_6:\n      tag_27\n      0x04\n      dup1\n      calldatasize\n      sub\n      dup2\n      add\n      swap1\n      tag_28\n      swap2\n      swap1\n      tag_29\n      jump\t// in\n    tag_28:\n      tag_30\n      jump\t// in\n    tag_27:\n      stop\n        /* \"Betting.sol\":2995:3353  function sell_NFT(bytes32 NFT_hash, uint ethPrice) external... */\n    tag_7:\n      callvalue\n      dup1\n      iszero\n      tag_31\n      jumpi\n      0x00\n      dup1\n      revert\n    tag_31:\n      pop\n      tag_32\n      0x04\n      dup1\n      calldatasize\n      sub\n      dup2\n      add\n      swap1\n      tag_33\n      swap2\n      swap1\n      tag_16\n      jump\t// in\n    tag_33:\n      tag_34\n      jump\t// in\n    tag_32:\n      stop\n        /* \"Betting.sol\":1356:1800  function bet(bytes32 stake, uint amount) external... */\n    tag_8:\n      callvalue\n      dup1\n      iszero\n      tag_35\n      jumpi\n      0x00\n      dup1\n      revert\n    tag_35:\n      pop\n      tag_36\n      0x04\n      dup1\n      calldatasize\n      sub\n      dup2\n      add\n      swap1\n      tag_37\n      swap2\n      swap1\n      tag_16\n      jump\t// in\n    tag_37:\n      tag_38\n      jump\t// in\n    tag_36:\n      stop\n        /* \"Betting.sol\":139:176  uint constant public PRICE = 1 * 1e15 */\n    tag_9:\n      callvalue\n      dup1\n      iszero\n      tag_39\n      jumpi\n      0x00\n      dup1\n      revert\n    tag_39:\n      pop\n      tag_40\n      tag_41\n      jump\t// in\n    tag_40:\n      mload(0x40)\n      tag_42\n      swap2\n      swap1\n      tag_43\n      jump\t// in\n    tag_42:\n      mload(0x40)\n      dup1\n      swap2\n      sub\n      swap1\n      return\n        /* \"Betting.sol\":1022:1350  function mint() external payable... */\n    tag_12:\n        /* \"Betting.sol\":168:176  1 * 1e15 */\n      0x038d7ea4c68000\n        /* \"Betting.sol\":1143:1152  msg.value */\n      callvalue\n        /* \"Betting.sol\":1143:1161  msg.value >= PRICE */\n      lt\n      iszero\n        /* \"Betting.sol\":1135:1180  require(msg.value >= PRICE, \"You're a jerk!\") */\n      tag_45\n      jumpi\n      mload(0x40)\n      0x08c379a000000000000000000000000000000000000000000000000000000000\n      dup2\n      mstore\n      0x04\n      add\n      tag_46\n      swap1\n      tag_47\n      jump\t// in\n    tag_46:\n      mload(0x40)\n      dup1\n      swap2\n      sub\n      swap1\n      revert\n    tag_45:\n        /* \"Betting.sol\":168:176  1 * 1e15 */\n      0x038d7ea4c68000\n        /* \"Betting.sol\":1247:1256  msg.value */\n      callvalue\n        /* \"Betting.sol\":1247:1264  msg.value / PRICE */\n      tag_48\n      swap2\n      swap1\n      tag_49\n      jump\t// in\n    tag_48:\n        /* \"Betting.sol\":1220:1231  entryTokens */\n      0x01\n        /* \"Betting.sol\":1220:1243  entryTokens[msg.sender] */\n      0x00\n        /* \"Betting.sol\":1232:1242  msg.sender */\n      caller\n        /* \"Betting.sol\":1220:1243  entryTokens[msg.sender] */\n      0xffffffffffffffffffffffffffffffffffffffff\n      and\n      0xffffffffffffffffffffffffffffffffffffffff\n      and\n      dup2\n      mstore\n      0x20\n      add\n      swap1\n      dup2\n      mstore\n      0x20\n      add\n      0x00\n      keccak256\n      0x00\n        /* \"Betting.sol\":1220:1264  entryTokens[msg.sender] += msg.value / PRICE */\n      dup3\n      dup3\n      sload\n      tag_50\n      swap2\n      swap1\n      tag_51\n      jump\t// in\n    tag_50:\n      swap3\n      pop\n      pop\n      dup2\n      swap1\n      sstore\n      pop\n        /* \"Betting.sol\":1316:1323  creator */\n      0x00\n      dup1\n      sload\n      swap1\n      0x0100\n      exp\n      swap1\n      div\n      0xffffffffffffffffffffffffffffffffffffffff\n      and\n        /* \"Betting.sol\":1316:1332  creator.transfer */\n      0xffffffffffffffffffffffffffffffffffffffff\n      and\n        /* \"Betting.sol\":1316:1343  creator.transfer(msg.value) */\n      0x08fc\n        /* \"Betting.sol\":1333:1342  msg.value */\n      callvalue\n        /* \"Betting.sol\":1316:1343  creator.transfer(msg.value) */\n      swap1\n      dup2\n      iszero\n      mul\n      swap1\n      mload(0x40)\n      0x00\n      mload(0x40)\n      dup1\n      dup4\n      sub\n      dup2\n      dup6\n      dup9\n      dup9\n      call\n      swap4\n      pop\n      pop\n      pop\n      pop\n      iszero\n      dup1\n      iszero\n      tag_53\n      jumpi\n      returndatasize\n      0x00\n      dup1\n      returndatacopy\n      revert(0x00, returndatasize)\n    tag_53:\n      pop\n        /* \"Betting.sol\":1022:1350  function mint() external payable... */\n      jump\t// out\n        /* \"Betting.sol\":1806:2107  function forge_NFT(bytes32 NFT_hash, uint superTokenPrice) external... */\n    tag_17:\n        /* \"Betting.sol\":1910:1917  creator */\n      0x00\n      dup1\n      sload\n      swap1\n      0x0100\n      exp\n      swap1\n      div\n      0xffffffffffffffffffffffffffffffffffffffff\n      and\n        /* \"Betting.sol\":1896:1917  msg.sender == creator */\n      0xffffffffffffffffffffffffffffffffffffffff\n      and\n        /* \"Betting.sol\":1896:1906  msg.sender */\n      caller\n        /* \"Betting.sol\":1896:1917  msg.sender == creator */\n      0xffffffffffffffffffffffffffffffffffffffff\n      and\n      eq\n        /* \"Betting.sol\":1888:1952  require(msg.sender == creator, \"You are not the contract owner\") */\n      tag_55\n      jumpi\n      mload(0x40)\n      0x08c379a000000000000000000000000000000000000000000000000000000000\n      dup2\n      mstore\n      0x04\n      add\n      tag_56\n      swap1\n      tag_57\n      jump\t// in\n    tag_56:\n      mload(0x40)\n      dup1\n      swap2\n      sub\n      swap1\n      revert\n    tag_55:\n        /* \"Betting.sol\":1998:1999  0 */\n      0x00\n        /* \"Betting.sol\":1970:1999  NFTs[NFT_hash].imageHash == 0 */\n      dup1\n      shl\n        /* \"Betting.sol\":1970:1974  NFTs */\n      0x03\n        /* \"Betting.sol\":1970:1984  NFTs[NFT_hash] */\n      0x00\n        /* \"Betting.sol\":1975:1983  NFT_hash */\n      dup5\n        /* \"Betting.sol\":1970:1984  NFTs[NFT_hash] */\n      dup2\n      mstore\n      0x20\n      add\n      swap1\n      dup2\n      mstore\n      0x20\n      add\n      0x00\n      keccak256\n        /* \"Betting.sol\":1970:1994  NFTs[NFT_hash].imageHash */\n      0x00\n      add\n      sload\n        /* \"Betting.sol\":1970:1999  NFTs[NFT_hash].imageHash == 0 */\n      eq\n        /* \"Betting.sol\":1962:2026  require(NFTs[NFT_hash].imageHash == 0, \"The NFT already exists\") */\n      tag_58\n      jumpi\n      mload(0x40)\n      0x08c379a000000000000000000000000000000000000000000000000000000000\n      dup2\n      mstore\n      0x04\n      add\n      tag_59\n      swap1\n      tag_60\n      jump\t// in\n    tag_59:\n      mload(0x40)\n      dup1\n      swap2\n      sub\n      swap1\n      revert\n    tag_58:\n        /* \"Betting.sol\":2053:2100  NFT(NFT_hash, false, superTokenPrice,0,creator) */\n      mload(0x40)\n      dup1\n      0xa0\n      add\n      0x40\n      mstore\n      dup1\n        /* \"Betting.sol\":2057:2065  NFT_hash */\n      dup4\n        /* \"Betting.sol\":2053:2100  NFT(NFT_hash, false, superTokenPrice,0,creator) */\n      dup2\n      mstore\n      0x20\n      add\n        /* \"Betting.sol\":2067:2072  false */\n      0x00\n        /* \"Betting.sol\":2053:2100  NFT(NFT_hash, false, superTokenPrice,0,creator) */\n      iszero\n      iszero\n      dup2\n      mstore\n      0x20\n      add\n        /* \"Betting.sol\":2074:2089  superTokenPrice */\n      dup3\n        /* \"Betting.sol\":2053:2100  NFT(NFT_hash, false, superTokenPrice,0,creator) */\n      dup2\n      mstore\n      0x20\n      add\n        /* \"Betting.sol\":2090:2091  0 */\n      0x00\n        /* \"Betting.sol\":2053:2100  NFT(NFT_hash, false, superTokenPrice,0,creator) */\n      dup2\n      mstore\n      0x20\n      add\n        /* \"Betting.sol\":2092:2099  creator */\n      0x00\n      dup1\n      sload\n      swap1\n      0x0100\n      exp\n      swap1\n      div\n      0xffffffffffffffffffffffffffffffffffffffff\n      and\n        /* \"Betting.sol\":2053:2100  NFT(NFT_hash, false, superTokenPrice,0,creator) */\n      0xffffffffffffffffffffffffffffffffffffffff\n      and\n      dup2\n      mstore\n      pop\n        /* \"Betting.sol\":2036:2040  NFTs */\n      0x03\n        /* \"Betting.sol\":2036:2050  NFTs[NFT_hash] */\n      0x00\n        /* \"Betting.sol\":2041:2049  NFT_hash */\n      dup5\n        /* \"Betting.sol\":2036:2050  NFTs[NFT_hash] */\n      dup2\n      mstore\n      0x20\n      add\n      swap1\n      dup2\n      mstore\n      0x20\n      add\n      0x00\n      keccak256\n        /* \"Betting.sol\":2036:2100  NFTs[NFT_hash] = NFT(NFT_hash, false, superTokenPrice,0,creator) */\n      0x00\n      dup3\n      add\n      mload\n      dup2\n      0x00\n      add\n      sstore\n      0x20\n      dup3\n      add\n      mload\n      dup2\n      0x01\n      add\n      exp(0x0100, 0x00)\n      dup2\n      sload\n      dup2\n      0xff\n      mul\n      not\n      and\n      swap1\n      dup4\n      iszero\n      iszero\n      mul\n      or\n      swap1\n      sstore\n      pop\n      0x40\n      dup3\n      add\n      mload\n      dup2\n      0x02\n      add\n      sstore\n      0x60\n      dup3\n      add\n      mload\n      dup2\n      0x03\n      add\n      sstore\n      0x80\n      dup3\n      add\n      mload\n      dup2\n      0x04\n      add\n      exp(0x0100, 0x00)\n      dup2\n      sload\n      dup2\n      0xffffffffffffffffffffffffffffffffffffffff\n      mul\n      not\n      and\n      swap1\n      dup4\n      0xffffffffffffffffffffffffffffffffffffffff\n      and\n      mul\n      or\n      swap1\n      sstore\n      pop\n      swap1\n      pop\n      pop\n        /* \"Betting.sol\":1806:2107  function forge_NFT(bytes32 NFT_hash, uint superTokenPrice) external... */\n      pop\n      pop\n      jump\t// out\n        /* \"Betting.sol\":3873:4008  function pay4win(address winner, uint amount) external... */\n    tag_22:\n        /* \"Betting.sol\":3995:4001  amount */\n      dup1\n        /* \"Betting.sol\":3972:3983  superTokens */\n      0x02\n        /* \"Betting.sol\":3972:3991  superTokens[winner] */\n      0x00\n        /* \"Betting.sol\":3984:3990  winner */\n      dup5\n        /* \"Betting.sol\":3972:3991  superTokens[winner] */\n      0xffffffffffffffffffffffffffffffffffffffff\n      and\n      0xffffffffffffffffffffffffffffffffffffffff\n      and\n      dup2\n      mstore\n      0x20\n      add\n      swap1\n      dup2\n      mstore\n      0x20\n      add\n      0x00\n      keccak256\n      0x00\n        /* \"Betting.sol\":3972:4001  superTokens[winner] += amount */\n      dup3\n      dup3\n      sload\n      tag_62\n      swap2\n      swap1\n      tag_51\n      jump\t// in\n    tag_62:\n      swap3\n      pop\n      pop\n      dup2\n      swap1\n      sstore\n      pop\n        /* \"Betting.sol\":3873:4008  function pay4win(address winner, uint amount) external... */\n      pop\n      pop\n      jump\t// out\n        /* \"Betting.sol\":2113:2989  function get_NFT(bytes32 NFT_hash, uint ethPrice) external... */\n    tag_26:\n        /* \"Betting.sol\":2288:2295  creator */\n      0x00\n      dup1\n      sload\n      swap1\n      0x0100\n      exp\n      swap1\n      div\n      0xffffffffffffffffffffffffffffffffffffffff\n      and\n        /* \"Betting.sol\":2264:2295  NFTs[NFT_hash].owner == creator */\n      0xffffffffffffffffffffffffffffffffffffffff\n      and\n        /* \"Betting.sol\":2264:2268  NFTs */\n      0x03\n        /* \"Betting.sol\":2264:2278  NFTs[NFT_hash] */\n      0x00\n        /* \"Betting.sol\":2269:2277  NFT_hash */\n      dup5\n        /* \"Betting.sol\":2264:2278  NFTs[NFT_hash] */\n      dup2\n      mstore\n      0x20\n      add\n      swap1\n      dup2\n      mstore\n      0x20\n      add\n      0x00\n      keccak256\n        /* \"Betting.sol\":2264:2284  NFTs[NFT_hash].owner */\n      0x04\n      add\n      0x00\n      swap1\n      sload\n      swap1\n      0x0100\n      exp\n      swap1\n      div\n      0xffffffffffffffffffffffffffffffffffffffff\n      and\n        /* \"Betting.sol\":2264:2295  NFTs[NFT_hash].owner == creator */\n      0xffffffffffffffffffffffffffffffffffffffff\n      and\n      eq\n        /* \"Betting.sol\":2256:2354  require(NFTs[NFT_hash].owner == creator,\"the NFT has never been got by anyone (with superTokens)\") */\n      tag_64\n      jumpi\n      mload(0x40)\n      0x08c379a000000000000000000000000000000000000000000000000000000000\n      dup2\n      mstore\n      0x04\n      add\n      tag_65\n      swap1\n      tag_66\n      jump\t// in\n    tag_65:\n      mload(0x40)\n      dup1\n      swap2\n      sub\n      swap1\n      revert\n    tag_64:\n        /* \"Betting.sol\":2460:2464  NFTs */\n      0x03\n        /* \"Betting.sol\":2460:2474  NFTs[NFT_hash] */\n      0x00\n        /* \"Betting.sol\":2465:2473  NFT_hash */\n      dup4\n        /* \"Betting.sol\":2460:2474  NFTs[NFT_hash] */\n      dup2\n      mstore\n      0x20\n      add\n      swap1\n      dup2\n      mstore\n      0x20\n      add\n      0x00\n      keccak256\n        /* \"Betting.sol\":2460:2490  NFTs[NFT_hash].superTokenPrice */\n      0x02\n      add\n      sload\n        /* \"Betting.sol\":2433:2444  superTokens */\n      0x02\n        /* \"Betting.sol\":2433:2456  superTokens[msg.sender] */\n      0x00\n        /* \"Betting.sol\":2445:2455  msg.sender */\n      caller\n        /* \"Betting.sol\":2433:2456  superTokens[msg.sender] */\n      0xffffffffffffffffffffffffffffffffffffffff\n      and\n      0xffffffffffffffffffffffffffffffffffffffff\n      and\n      dup2\n      mstore\n      0x20\n      add\n      swap1\n      dup2\n      mstore\n      0x20\n      add\n      0x00\n      keccak256\n      sload\n        /* \"Betting.sol\":2433:2490  superTokens[msg.sender] >= NFTs[NFT_hash].superTokenPrice */\n      lt\n      iszero\n        /* \"Betting.sol\":2425:2547  require(superTokens[msg.sender] >= NFTs[NFT_hash].superTokenPrice,\"the sender has not enough super tokens to get the NFT\") */\n      tag_67\n      jumpi\n      mload(0x40)\n      0x08c379a000000000000000000000000000000000000000000000000000000000\n      dup2\n      mstore\n      0x04\n      add\n      tag_68\n      swap1\n      tag_69\n      jump\t// in\n    tag_68:\n      mload(0x40)\n      dup1\n      swap2\n      sub\n      swap1\n      revert\n    tag_67:\n        /* \"Betting.sol\":2645:2649  NFTs */\n      0x03\n        /* \"Betting.sol\":2645:2659  NFTs[NFT_hash] */\n      0x00\n        /* \"Betting.sol\":2650:2658  NFT_hash */\n      dup4\n        /* \"Betting.sol\":2645:2659  NFTs[NFT_hash] */\n      dup2\n      mstore\n      0x20\n      add\n      swap1\n      dup2\n      mstore\n      0x20\n      add\n      0x00\n      keccak256\n        /* \"Betting.sol\":2645:2675  NFTs[NFT_hash].superTokenPrice */\n      0x02\n      add\n      sload\n        /* \"Betting.sol\":2618:2629  superTokens */\n      0x02\n        /* \"Betting.sol\":2618:2641  superTokens[msg.sender] */\n      0x00\n        /* \"Betting.sol\":2630:2640  msg.sender */\n      caller\n        /* \"Betting.sol\":2618:2641  superTokens[msg.sender] */\n      0xffffffffffffffffffffffffffffffffffffffff\n      and\n      0xffffffffffffffffffffffffffffffffffffffff\n      and\n      dup2\n      mstore\n      0x20\n      add\n      swap1\n      dup2\n      mstore\n      0x20\n      add\n      0x00\n      keccak256\n      0x00\n        /* \"Betting.sol\":2618:2675  superTokens[msg.sender] -= NFTs[NFT_hash].superTokenPrice */\n      dup3\n      dup3\n      sload\n      tag_70\n      swap2\n      swap1\n      tag_71\n      jump\t// in\n    tag_70:\n      swap3\n      pop\n      pop\n      dup2\n      swap1\n      sstore\n      pop\n        /* \"Betting.sol\":2760:2770  msg.sender */\n      caller\n        /* \"Betting.sol\":2737:2741  NFTs */\n      0x03\n        /* \"Betting.sol\":2737:2751  NFTs[NFT_hash] */\n      0x00\n        /* \"Betting.sol\":2742:2750  NFT_hash */\n      dup5\n        /* \"Betting.sol\":2737:2751  NFTs[NFT_hash] */\n      dup2\n      mstore\n      0x20\n      add\n      swap1\n      dup2\n      mstore\n      0x20\n      add\n      0x00\n      keccak256\n        /* \"Betting.sol\":2737:2757  NFTs[NFT_hash].owner */\n      0x04\n      add\n      0x00\n        /* \"Betting.sol\":2737:2770  NFTs[NFT_hash].owner = msg.sender */\n      0x0100\n      exp\n      dup2\n      sload\n      dup2\n      0xffffffffffffffffffffffffffffffffffffffff\n      mul\n      not\n      and\n      swap1\n      dup4\n      0xffffffffffffffffffffffffffffffffffffffff\n      and\n      mul\n      or\n      swap1\n      sstore\n      pop\n        /* \"Betting.sol\":2896:2897  0 */\n      0x00\n        /* \"Betting.sol\":2884:2892  ethPrice */\n      dup2\n        /* \"Betting.sol\":2884:2897  ethPrice != 0 */\n      eq\n      iszero\n        /* \"Betting.sol\":2858:2862  NFTs */\n      0x03\n        /* \"Betting.sol\":2858:2872  NFTs[NFT_hash] */\n      0x00\n        /* \"Betting.sol\":2863:2871  NFT_hash */\n      dup5\n        /* \"Betting.sol\":2858:2872  NFTs[NFT_hash] */\n      dup2\n      mstore\n      0x20\n      add\n      swap1\n      dup2\n      mstore\n      0x20\n      add\n      0x00\n      keccak256\n        /* \"Betting.sol\":2858:2880  NFTs[NFT_hash].selling */\n      0x01\n      add\n      0x00\n        /* \"Betting.sol\":2858:2898  NFTs[NFT_hash].selling = (ethPrice != 0) */\n      0x0100\n      exp\n      dup2\n      sload\n      dup2\n      0xff\n      mul\n      not\n      and\n      swap1\n      dup4\n      iszero\n      iszero\n      mul\n      or\n      swap1\n      sstore\n      pop\n        /* \"Betting.sol\":2912:2916  NFTs */\n      0x03\n        /* \"Betting.sol\":2912:2926  NFTs[NFT_hash] */\n      0x00\n        /* \"Betting.sol\":2917:2925  NFT_hash */\n      dup4\n        /* \"Betting.sol\":2912:2926  NFTs[NFT_hash] */\n      dup2\n      mstore\n      0x20\n      add\n      swap1\n      dup2\n      mstore\n      0x20\n      add\n      0x00\n      keccak256\n        /* \"Betting.sol\":2912:2934  NFTs[NFT_hash].selling */\n      0x01\n      add\n      0x00\n      swap1\n      sload\n      swap1\n      0x0100\n      exp\n      swap1\n      div\n      0xff\n      and\n        /* \"Betting.sol\":2908:2982  if (NFTs[NFT_hash].selling)... */\n      iszero\n      tag_72\n      jumpi\n        /* \"Betting.sol\":2974:2982  ethPrice */\n      dup1\n        /* \"Betting.sol\":2948:2952  NFTs */\n      0x03\n        /* \"Betting.sol\":2948:2962  NFTs[NFT_hash] */\n      0x00\n        /* \"Betting.sol\":2953:2961  NFT_hash */\n      dup5\n        /* \"Betting.sol\":2948:2962  NFTs[NFT_hash] */\n      dup2\n      mstore\n      0x20\n      add\n      swap1\n      dup2\n      mstore\n      0x20\n      add\n      0x00\n      keccak256\n        /* \"Betting.sol\":2948:2971  NFTs[NFT_hash].ethPrice */\n      0x03\n      add\n        /* \"Betting.sol\":2948:2982  NFTs[NFT_hash].ethPrice = ethPrice */\n      dup2\n      swap1\n      sstore\n      pop\n        /* \"Betting.sol\":2908:2982  if (NFTs[NFT_hash].selling)... */\n    tag_72:\n        /* \"Betting.sol\":2113:2989  function get_NFT(bytes32 NFT_hash, uint ethPrice) external... */\n      pop\n      pop\n      jump\t// out\n        /* \"Betting.sol\":3359:3867  function buy_NFT(bytes32 NFT_hash) payable external... */\n    tag_30:\n        /* \"Betting.sol\":3470:3474  NFTs */\n      0x03\n        /* \"Betting.sol\":3470:3484  NFTs[NFT_hash] */\n      0x00\n        /* \"Betting.sol\":3475:3483  NFT_hash */\n      dup3\n        /* \"Betting.sol\":3470:3484  NFTs[NFT_hash] */\n      dup2\n      mstore\n      0x20\n      add\n      swap1\n      dup2\n      mstore\n      0x20\n      add\n      0x00\n      keccak256\n        /* \"Betting.sol\":3470:3492  NFTs[NFT_hash].selling */\n      0x01\n      add\n      0x00\n      swap1\n      sload\n      swap1\n      0x0100\n      exp\n      swap1\n      div\n      0xff\n      and\n        /* \"Betting.sol\":3462:3521  require(NFTs[NFT_hash].selling,\"the NFT is not being sold\") */\n      tag_74\n      jumpi\n      mload(0x40)\n      0x08c379a000000000000000000000000000000000000000000000000000000000\n      dup2\n      mstore\n      0x04\n      add\n      tag_75\n      swap1\n      tag_76\n      jump\t// in\n    tag_75:\n      mload(0x40)\n      dup1\n      swap2\n      sub\n      swap1\n      revert\n    tag_74:\n        /* \"Betting.sol\":3600:3604  NFTs */\n      0x03\n        /* \"Betting.sol\":3600:3614  NFTs[NFT_hash] */\n      0x00\n        /* \"Betting.sol\":3605:3613  NFT_hash */\n      dup3\n        /* \"Betting.sol\":3600:3614  NFTs[NFT_hash] */\n      dup2\n      mstore\n      0x20\n      add\n      swap1\n      dup2\n      mstore\n      0x20\n      add\n      0x00\n      keccak256\n        /* \"Betting.sol\":3600:3623  NFTs[NFT_hash].ethPrice */\n      0x03\n      add\n      sload\n        /* \"Betting.sol\":3587:3596  msg.value */\n      callvalue\n        /* \"Betting.sol\":3587:3623  msg.value >= NFTs[NFT_hash].ethPrice */\n      lt\n      iszero\n        /* \"Betting.sol\":3579:3663  require(msg.value >= NFTs[NFT_hash].ethPrice,\"you need enough ether to buy the NFT\") */\n      tag_77\n      jumpi\n      mload(0x40)\n      0x08c379a000000000000000000000000000000000000000000000000000000000\n      dup2\n      mstore\n      0x04\n      add\n      tag_78\n      swap1\n      tag_79\n      jump\t// in\n    tag_78:\n      mload(0x40)\n      dup1\n      swap2\n      sub\n      swap1\n      revert\n    tag_77:\n        /* \"Betting.sol\":3724:3728  NFTs */\n      0x03\n        /* \"Betting.sol\":3724:3738  NFTs[NFT_hash] */\n      0x00\n        /* \"Betting.sol\":3729:3737  NFT_hash */\n      dup3\n        /* \"Betting.sol\":3724:3738  NFTs[NFT_hash] */\n      dup2\n      mstore\n      0x20\n      add\n      swap1\n      dup2\n      mstore\n      0x20\n      add\n      0x00\n      keccak256\n        /* \"Betting.sol\":3724:3744  NFTs[NFT_hash].owner */\n      0x04\n      add\n      0x00\n      swap1\n      sload\n      swap1\n      0x0100\n      exp\n      swap1\n      div\n      0xffffffffffffffffffffffffffffffffffffffff\n      and\n        /* \"Betting.sol\":3716:3754  payable(NFTs[NFT_hash].owner).transfer */\n      0xffffffffffffffffffffffffffffffffffffffff\n      and\n        /* \"Betting.sol\":3716:3765  payable(NFTs[NFT_hash].owner).transfer(msg.value) */\n      0x08fc\n        /* \"Betting.sol\":3755:3764  msg.value */\n      callvalue\n        /* \"Betting.sol\":3716:3765  payable(NFTs[NFT_hash].owner).transfer(msg.value) */\n      swap1\n      dup2\n      iszero\n      mul\n      swap1\n      mload(0x40)\n      0x00\n      mload(0x40)\n      dup1\n      dup4\n      sub\n      dup2\n      dup6\n      dup9\n      dup9\n      call\n      swap4\n      pop\n      pop\n      pop\n      pop\n      iszero\n      dup1\n      iszero\n      tag_81\n      jumpi\n      returndatasize\n      0x00\n      dup1\n      returndatacopy\n      revert(0x00, returndatasize)\n    tag_81:\n      pop\n        /* \"Betting.sol\":3841:3851  msg.sender */\n      caller\n        /* \"Betting.sol\":3818:3822  NFTs */\n      0x03\n        /* \"Betting.sol\":3818:3832  NFTs[NFT_hash] */\n      0x00\n        /* \"Betting.sol\":3823:3831  NFT_hash */\n      dup4\n        /* \"Betting.sol\":3818:3832  NFTs[NFT_hash] */\n      dup2\n      mstore\n      0x20\n      add\n      swap1\n      dup2\n      mstore\n      0x20\n      add\n      0x00\n      keccak256\n        /* \"Betting.sol\":3818:3838  NFTs[NFT_hash].owner */\n      0x04\n      add\n      0x00\n        /* \"Betting.sol\":3818:3851  NFTs[NFT_hash].owner = msg.sender */\n      0x0100\n      exp\n      dup2\n      sload\n      dup2\n      0xffffffffffffffffffffffffffffffffffffffff\n      mul\n      not\n      and\n      swap1\n      dup4\n      0xffffffffffffffffffffffffffffffffffffffff\n      and\n      mul\n      or\n      swap1\n      sstore\n      pop\n        /* \"Betting.sol\":3359:3867  function buy_NFT(bytes32 NFT_hash) payable external... */\n      pop\n      jump\t// out\n        /* \"Betting.sol\":2995:3353  function sell_NFT(bytes32 NFT_hash, uint ethPrice) external... */\n    tag_34:\n        /* \"Betting.sol\":3138:3142  NFTs */\n      0x03\n        /* \"Betting.sol\":3138:3152  NFTs[NFT_hash] */\n      0x00\n        /* \"Betting.sol\":3143:3151  NFT_hash */\n      dup4\n        /* \"Betting.sol\":3138:3152  NFTs[NFT_hash] */\n      dup2\n      mstore\n      0x20\n      add\n      swap1\n      dup2\n      mstore\n      0x20\n      add\n      0x00\n      keccak256\n        /* \"Betting.sol\":3138:3158  NFTs[NFT_hash].owner */\n      0x04\n      add\n      0x00\n      swap1\n      sload\n      swap1\n      0x0100\n      exp\n      swap1\n      div\n      0xffffffffffffffffffffffffffffffffffffffff\n      and\n        /* \"Betting.sol\":3124:3158  msg.sender == NFTs[NFT_hash].owner */\n      0xffffffffffffffffffffffffffffffffffffffff\n      and\n        /* \"Betting.sol\":3124:3134  msg.sender */\n      caller\n        /* \"Betting.sol\":3124:3158  msg.sender == NFTs[NFT_hash].owner */\n      0xffffffffffffffffffffffffffffffffffffffff\n      and\n      eq\n        /* \"Betting.sol\":3116:3197  require(msg.sender == NFTs[NFT_hash].owner,\"you need to be the owner of the NFT\") */\n      tag_83\n      jumpi\n      mload(0x40)\n      0x08c379a000000000000000000000000000000000000000000000000000000000\n      dup2\n      mstore\n      0x04\n      add\n      tag_84\n      swap1\n      tag_85\n      jump\t// in\n    tag_84:\n      mload(0x40)\n      dup1\n      swap2\n      sub\n      swap1\n      revert\n    tag_83:\n        /* \"Betting.sol\":3299:3307  ethPrice */\n      dup1\n        /* \"Betting.sol\":3273:3277  NFTs */\n      0x03\n        /* \"Betting.sol\":3273:3287  NFTs[NFT_hash] */\n      0x00\n        /* \"Betting.sol\":3278:3286  NFT_hash */\n      dup5\n        /* \"Betting.sol\":3273:3287  NFTs[NFT_hash] */\n      dup2\n      mstore\n      0x20\n      add\n      swap1\n      dup2\n      mstore\n      0x20\n      add\n      0x00\n      keccak256\n        /* \"Betting.sol\":3273:3296  NFTs[NFT_hash].ethPrice */\n      0x03\n      add\n        /* \"Betting.sol\":3273:3307  NFTs[NFT_hash].ethPrice = ethPrice */\n      dup2\n      swap1\n      sstore\n      pop\n        /* \"Betting.sol\":3342:3346  true */\n      0x01\n        /* \"Betting.sol\":3317:3321  NFTs */\n      0x03\n        /* \"Betting.sol\":3317:3331  NFTs[NFT_hash] */\n      0x00\n        /* \"Betting.sol\":3322:3330  NFT_hash */\n      dup5\n        /* \"Betting.sol\":3317:3331  NFTs[NFT_hash] */\n      dup2\n      mstore\n      0x20\n      add\n      swap1\n      dup2\n      mstore\n      0x20\n      add\n      0x00\n      keccak256\n        /* \"Betting.sol\":3317:3339  NFTs[NFT_hash].selling */\n      0x01\n      add\n      0x00\n        /* \"Betting.sol\":3317:3346  NFTs[NFT_hash].selling = true */\n      0x0100\n      exp\n      dup2\n      sload\n      dup2\n      0xff\n      mul\n      not\n      and\n      swap1\n      dup4\n      iszero\n      iszero\n      mul\n      or\n      swap1\n      sstore\n      pop\n        /* \"Betting.sol\":2995:3353  function sell_NFT(bytes32 NFT_hash, uint ethPrice) external... */\n      pop\n      pop\n      jump\t// out\n        /* \"Betting.sol\":1356:1800  function bet(bytes32 stake, uint amount) external... */\n    tag_38:\n        /* \"Betting.sol\":1481:1487  amount */\n      dup1\n        /* \"Betting.sol\":1454:1465  superTokens */\n      0x02\n        /* \"Betting.sol\":1454:1477  superTokens[msg.sender] */\n      0x00\n        /* \"Betting.sol\":1466:1476  msg.sender */\n      caller\n        /* \"Betting.sol\":1454:1477  superTokens[msg.sender] */\n      0xffffffffffffffffffffffffffffffffffffffff\n      and\n      0xffffffffffffffffffffffffffffffffffffffff\n      and\n      dup2\n      mstore\n      0x20\n      add\n      swap1\n      dup2\n      mstore\n      0x20\n      add\n      0x00\n      keccak256\n      sload\n        /* \"Betting.sol\":1428:1439  entryTokens */\n      0x01\n        /* \"Betting.sol\":1428:1451  entryTokens[msg.sender] */\n      0x00\n        /* \"Betting.sol\":1440:1450  msg.sender */\n      caller\n        /* \"Betting.sol\":1428:1451  entryTokens[msg.sender] */\n      0xffffffffffffffffffffffffffffffffffffffff\n      and\n      0xffffffffffffffffffffffffffffffffffffffff\n      and\n      dup2\n      mstore\n      0x20\n      add\n      swap1\n      dup2\n      mstore\n      0x20\n      add\n      0x00\n      keccak256\n      sload\n        /* \"Betting.sol\":1428:1477  entryTokens[msg.sender] + superTokens[msg.sender] */\n      tag_87\n      swap2\n      swap1\n      tag_51\n      jump\t// in\n    tag_87:\n        /* \"Betting.sol\":1428:1487  entryTokens[msg.sender] + superTokens[msg.sender] >= amount */\n      lt\n      iszero\n        /* \"Betting.sol\":1420:1512  require(entryTokens[msg.sender] + superTokens[msg.sender] >= amount,\"You're a jerk, again!\") */\n      tag_88\n      jumpi\n      mload(0x40)\n      0x08c379a000000000000000000000000000000000000000000000000000000000\n      dup2\n      mstore\n      0x04\n      add\n      tag_89\n      swap1\n      tag_90\n      jump\t// in\n    tag_89:\n      mload(0x40)\n      dup1\n      swap2\n      sub\n      swap1\n      revert\n    tag_88:\n        /* \"Betting.sol\":1553:1559  amount */\n      dup1\n        /* \"Betting.sol\":1526:1537  entryTokens */\n      0x01\n        /* \"Betting.sol\":1526:1549  entryTokens[msg.sender] */\n      0x00\n        /* \"Betting.sol\":1538:1548  msg.sender */\n      caller\n        /* \"Betting.sol\":1526:1549  entryTokens[msg.sender] */\n      0xffffffffffffffffffffffffffffffffffffffff\n      and\n      0xffffffffffffffffffffffffffffffffffffffff\n      and\n      dup2\n      mstore\n      0x20\n      add\n      swap1\n      dup2\n      mstore\n      0x20\n      add\n      0x00\n      keccak256\n      sload\n        /* \"Betting.sol\":1526:1559  entryTokens[msg.sender] >= amount */\n      lt\n        /* \"Betting.sol\":1522:1794  if (entryTokens[msg.sender] >= amount)... */\n      tag_91\n      jumpi\n        /* \"Betting.sol\":1600:1606  amount */\n      dup1\n        /* \"Betting.sol\":1573:1584  entryTokens */\n      0x01\n        /* \"Betting.sol\":1573:1596  entryTokens[msg.sender] */\n      0x00\n        /* \"Betting.sol\":1585:1595  msg.sender */\n      caller\n        /* \"Betting.sol\":1573:1596  entryTokens[msg.sender] */\n      0xffffffffffffffffffffffffffffffffffffffff\n      and\n      0xffffffffffffffffffffffffffffffffffffffff\n      and\n      dup2\n      mstore\n      0x20\n      add\n      swap1\n      dup2\n      mstore\n      0x20\n      add\n      0x00\n      keccak256\n      0x00\n        /* \"Betting.sol\":1573:1606  entryTokens[msg.sender] -= amount */\n      dup3\n      dup3\n      sload\n      tag_92\n      swap2\n      swap1\n      tag_71\n      jump\t// in\n    tag_92:\n      swap3\n      pop\n      pop\n      dup2\n      swap1\n      sstore\n      pop\n        /* \"Betting.sol\":1522:1794  if (entryTokens[msg.sender] >= amount)... */\n      jump(tag_93)\n    tag_91:\n        /* \"Betting.sol\":1643:1657  uint remaining */\n      0x00\n        /* \"Betting.sol\":1669:1680  entryTokens */\n      0x01\n        /* \"Betting.sol\":1669:1692  entryTokens[msg.sender] */\n      0x00\n        /* \"Betting.sol\":1681:1691  msg.sender */\n      caller\n        /* \"Betting.sol\":1669:1692  entryTokens[msg.sender] */\n      0xffffffffffffffffffffffffffffffffffffffff\n      and\n      0xffffffffffffffffffffffffffffffffffffffff\n      and\n      dup2\n      mstore\n      0x20\n      add\n      swap1\n      dup2\n      mstore\n      0x20\n      add\n      0x00\n      keccak256\n      sload\n        /* \"Betting.sol\":1660:1666  amount */\n      dup3\n        /* \"Betting.sol\":1660:1692  amount - entryTokens[msg.sender] */\n      tag_94\n      swap2\n      swap1\n      tag_71\n      jump\t// in\n    tag_94:\n        /* \"Betting.sol\":1643:1692  uint remaining = amount - entryTokens[msg.sender] */\n      swap1\n      pop\n        /* \"Betting.sol\":1732:1733  0 */\n      0x00\n        /* \"Betting.sol\":1706:1717  entryTokens */\n      0x01\n        /* \"Betting.sol\":1706:1729  entryTokens[msg.sender] */\n      0x00\n        /* \"Betting.sol\":1718:1728  msg.sender */\n      caller\n        /* \"Betting.sol\":1706:1729  entryTokens[msg.sender] */\n      0xffffffffffffffffffffffffffffffffffffffff\n      and\n      0xffffffffffffffffffffffffffffffffffffffff\n      and\n      dup2\n      mstore\n      0x20\n      add\n      swap1\n      dup2\n      mstore\n      0x20\n      add\n      0x00\n      keccak256\n        /* \"Betting.sol\":1706:1733  entryTokens[msg.sender] = 0 */\n      dup2\n      swap1\n      sstore\n      pop\n        /* \"Betting.sol\":1774:1783  remaining */\n      dup1\n        /* \"Betting.sol\":1747:1758  superTokens */\n      0x02\n        /* \"Betting.sol\":1747:1770  superTokens[msg.sender] */\n      0x00\n        /* \"Betting.sol\":1759:1769  msg.sender */\n      caller\n        /* \"Betting.sol\":1747:1770  superTokens[msg.sender] */\n      0xffffffffffffffffffffffffffffffffffffffff\n      and\n      0xffffffffffffffffffffffffffffffffffffffff\n      and\n      dup2\n      mstore\n      0x20\n      add\n      swap1\n      dup2\n      mstore\n      0x20\n      add\n      0x00\n      keccak256\n      0x00\n        /* \"Betting.sol\":1747:1783  superTokens[msg.sender] -= remaining */\n      dup3\n      dup3\n      sload\n      tag_95\n      swap2\n      swap1\n      tag_71\n      jump\t// in\n    tag_95:\n      swap3\n      pop\n      pop\n      dup2\n      swap1\n      sstore\n      pop\n        /* \"Betting.sol\":1629:1794  {... */\n      pop\n        /* \"Betting.sol\":1522:1794  if (entryTokens[msg.sender] >= amount)... */\n    tag_93:\n        /* \"Betting.sol\":1356:1800  function bet(bytes32 stake, uint amount) external... */\n      pop\n      pop\n      jump\t// out\n        /* \"Betting.sol\":139:176  uint constant public PRICE = 1 * 1e15 */\n    tag_41:\n        /* \"Betting.sol\":168:176  1 * 1e15 */\n      0x038d7ea4c68000\n        /* \"Betting.sol\":139:176  uint constant public PRICE = 1 * 1e15 */\n      dup2\n      jump\t// out\n        /* \"#utility.yul\":7:146   */\n    tag_97:\n        /* \"#utility.yul\":53:58   */\n      0x00\n        /* \"#utility.yul\":91:97   */\n      dup2\n        /* \"#utility.yul\":78:98   */\n      calldataload\n        /* \"#utility.yul\":69:98   */\n      swap1\n      pop\n        /* \"#utility.yul\":107:140   */\n      tag_99\n        /* \"#utility.yul\":134:139   */\n      dup2\n        /* \"#utility.yul\":107:140   */\n      tag_100\n      jump\t// in\n    tag_99:\n        /* \"#utility.yul\":7:146   */\n      swap3\n      swap2\n      pop\n      pop\n      jump\t// out\n        /* \"#utility.yul\":152:291   */\n    tag_101:\n        /* \"#utility.yul\":198:203   */\n      0x00\n        /* \"#utility.yul\":236:242   */\n      dup2\n        /* \"#utility.yul\":223:243   */\n      calldataload\n        /* \"#utility.yul\":214:243   */\n      swap1\n      pop\n        /* \"#utility.yul\":252:285   */\n      tag_103\n        /* \"#utility.yul\":279:284   */\n      dup2\n        /* \"#utility.yul\":252:285   */\n      tag_104\n      jump\t// in\n    tag_103:\n        /* \"#utility.yul\":152:291   */\n      swap3\n      swap2\n      pop\n      pop\n      jump\t// out\n        /* \"#utility.yul\":297:436   */\n    tag_105:\n        /* \"#utility.yul\":343:348   */\n      0x00\n        /* \"#utility.yul\":381:387   */\n      dup2\n        /* \"#utility.yul\":368:388   */\n      calldataload\n        /* \"#utility.yul\":359:388   */\n      swap1\n      pop\n        /* \"#utility.yul\":397:430   */\n      tag_107\n        /* \"#utility.yul\":424:429   */\n      dup2\n        /* \"#utility.yul\":397:430   */\n      tag_108\n      jump\t// in\n    tag_107:\n        /* \"#utility.yul\":297:436   */\n      swap3\n      swap2\n      pop\n      pop\n      jump\t// out\n        /* \"#utility.yul\":442:916   */\n    tag_21:\n        /* \"#utility.yul\":510:516   */\n      0x00\n        /* \"#utility.yul\":518:524   */\n      dup1\n        /* \"#utility.yul\":567:569   */\n      0x40\n        /* \"#utility.yul\":555:564   */\n      dup4\n        /* \"#utility.yul\":546:553   */\n      dup6\n        /* \"#utility.yul\":542:565   */\n      sub\n        /* \"#utility.yul\":538:570   */\n      slt\n        /* \"#utility.yul\":535:654   */\n      iszero\n      tag_110\n      jumpi\n        /* \"#utility.yul\":573:652   */\n      tag_111\n      tag_112\n      jump\t// in\n    tag_111:\n        /* \"#utility.yul\":535:654   */\n    tag_110:\n        /* \"#utility.yul\":693:694   */\n      0x00\n        /* \"#utility.yul\":718:771   */\n      tag_113\n        /* \"#utility.yul\":763:770   */\n      dup6\n        /* \"#utility.yul\":754:760   */\n      dup3\n        /* \"#utility.yul\":743:752   */\n      dup7\n        /* \"#utility.yul\":739:761   */\n      add\n        /* \"#utility.yul\":718:771   */\n      tag_97\n      jump\t// in\n    tag_113:\n        /* \"#utility.yul\":708:771   */\n      swap3\n      pop\n        /* \"#utility.yul\":664:781   */\n      pop\n        /* \"#utility.yul\":820:822   */\n      0x20\n        /* \"#utility.yul\":846:899   */\n      tag_114\n        /* \"#utility.yul\":891:898   */\n      dup6\n        /* \"#utility.yul\":882:888   */\n      dup3\n        /* \"#utility.yul\":871:880   */\n      dup7\n        /* \"#utility.yul\":867:889   */\n      add\n        /* \"#utility.yul\":846:899   */\n      tag_105\n      jump\t// in\n    tag_114:\n        /* \"#utility.yul\":836:899   */\n      swap2\n      pop\n        /* \"#utility.yul\":791:909   */\n      pop\n        /* \"#utility.yul\":442:916   */\n      swap3\n      pop\n      swap3\n      swap1\n      pop\n      jump\t// out\n        /* \"#utility.yul\":922:1251   */\n    tag_29:\n        /* \"#utility.yul\":981:987   */\n      0x00\n        /* \"#utility.yul\":1030:1032   */\n      0x20\n        /* \"#utility.yul\":1018:1027   */\n      dup3\n        /* \"#utility.yul\":1009:1016   */\n      dup5\n        /* \"#utility.yul\":1005:1028   */\n      sub\n        /* \"#utility.yul\":1001:1033   */\n      slt\n        /* \"#utility.yul\":998:1117   */\n      iszero\n      tag_116\n      jumpi\n        /* \"#utility.yul\":1036:1115   */\n      tag_117\n      tag_112\n      jump\t// in\n    tag_117:\n        /* \"#utility.yul\":998:1117   */\n    tag_116:\n        /* \"#utility.yul\":1156:1157   */\n      0x00\n        /* \"#utility.yul\":1181:1234   */\n      tag_118\n        /* \"#utility.yul\":1226:1233   */\n      dup5\n        /* \"#utility.yul\":1217:1223   */\n      dup3\n        /* \"#utility.yul\":1206:1215   */\n      dup6\n        /* \"#utility.yul\":1202:1224   */\n      add\n        /* \"#utility.yul\":1181:1234   */\n      tag_101\n      jump\t// in\n    tag_118:\n        /* \"#utility.yul\":1171:1234   */\n      swap2\n      pop\n        /* \"#utility.yul\":1127:1244   */\n      pop\n        /* \"#utility.yul\":922:1251   */\n      swap3\n      swap2\n      pop\n      pop\n      jump\t// out\n        /* \"#utility.yul\":1257:1731   */\n    tag_16:\n        /* \"#utility.yul\":1325:1331   */\n      0x00\n        /* \"#utility.yul\":1333:1339   */\n      dup1\n        /* \"#utility.yul\":1382:1384   */\n      0x40\n        /* \"#utility.yul\":1370:1379   */\n      dup4\n        /* \"#utility.yul\":1361:1368   */\n      dup6\n        /* \"#utility.yul\":1357:1380   */\n      sub\n        /* \"#utility.yul\":1353:1385   */\n      slt\n        /* \"#utility.yul\":1350:1469   */\n      iszero\n      tag_120\n      jumpi\n        /* \"#utility.yul\":1388:1467   */\n      tag_121\n      tag_112\n      jump\t// in\n    tag_121:\n        /* \"#utility.yul\":1350:1469   */\n    tag_120:\n        /* \"#utility.yul\":1508:1509   */\n      0x00\n        /* \"#utility.yul\":1533:1586   */\n      tag_122\n        /* \"#utility.yul\":1578:1585   */\n      dup6\n        /* \"#utility.yul\":1569:1575   */\n      dup3\n        /* \"#utility.yul\":1558:1567   */\n      dup7\n        /* \"#utility.yul\":1554:1576   */\n      add\n        /* \"#utility.yul\":1533:1586   */\n      tag_101\n      jump\t// in\n    tag_122:\n        /* \"#utility.yul\":1523:1586   */\n      swap3\n      pop\n        /* \"#utility.yul\":1479:1596   */\n      pop\n        /* \"#utility.yul\":1635:1637   */\n      0x20\n        /* \"#utility.yul\":1661:1714   */\n      tag_123\n        /* \"#utility.yul\":1706:1713   */\n      dup6\n        /* \"#utility.yul\":1697:1703   */\n      dup3\n        /* \"#utility.yul\":1686:1695   */\n      dup7\n        /* \"#utility.yul\":1682:1704   */\n      add\n        /* \"#utility.yul\":1661:1714   */\n      tag_105\n      jump\t// in\n    tag_123:\n        /* \"#utility.yul\":1651:1714   */\n      swap2\n      pop\n        /* \"#utility.yul\":1606:1724   */\n      pop\n        /* \"#utility.yul\":1257:1731   */\n      swap3\n      pop\n      swap3\n      swap1\n      pop\n      jump\t// out\n        /* \"#utility.yul\":1737:2103   */\n    tag_124:\n        /* \"#utility.yul\":1879:1882   */\n      0x00\n        /* \"#utility.yul\":1900:1967   */\n      tag_126\n        /* \"#utility.yul\":1964:1966   */\n      0x23\n        /* \"#utility.yul\":1959:1962   */\n      dup4\n        /* \"#utility.yul\":1900:1967   */\n      tag_127\n      jump\t// in\n    tag_126:\n        /* \"#utility.yul\":1893:1967   */\n      swap2\n      pop\n        /* \"#utility.yul\":1976:2069   */\n      tag_128\n        /* \"#utility.yul\":2065:2068   */\n      dup3\n        /* \"#utility.yul\":1976:2069   */\n      tag_129\n      jump\t// in\n    tag_128:\n        /* \"#utility.yul\":2094:2096   */\n      0x40\n        /* \"#utility.yul\":2089:2092   */\n      dup3\n        /* \"#utility.yul\":2085:2097   */\n      add\n        /* \"#utility.yul\":2078:2097   */\n      swap1\n      pop\n        /* \"#utility.yul\":1737:2103   */\n      swap2\n      swap1\n      pop\n      jump\t// out\n        /* \"#utility.yul\":2109:2475   */\n    tag_130:\n        /* \"#utility.yul\":2251:2254   */\n      0x00\n        /* \"#utility.yul\":2272:2339   */\n      tag_132\n        /* \"#utility.yul\":2336:2338   */\n      0x1e\n        /* \"#utility.yul\":2331:2334   */\n      dup4\n        /* \"#utility.yul\":2272:2339   */\n      tag_127\n      jump\t// in\n    tag_132:\n        /* \"#utility.yul\":2265:2339   */\n      swap2\n      pop\n        /* \"#utility.yul\":2348:2441   */\n      tag_133\n        /* \"#utility.yul\":2437:2440   */\n      dup3\n        /* \"#utility.yul\":2348:2441   */\n      tag_134\n      jump\t// in\n    tag_133:\n        /* \"#utility.yul\":2466:2468   */\n      0x20\n        /* \"#utility.yul\":2461:2464   */\n      dup3\n        /* \"#utility.yul\":2457:2469   */\n      add\n        /* \"#utility.yul\":2450:2469   */\n      swap1\n      pop\n        /* \"#utility.yul\":2109:2475   */\n      swap2\n      swap1\n      pop\n      jump\t// out\n        /* \"#utility.yul\":2481:2847   */\n    tag_135:\n        /* \"#utility.yul\":2623:2626   */\n      0x00\n        /* \"#utility.yul\":2644:2711   */\n      tag_137\n        /* \"#utility.yul\":2708:2710   */\n      0x15\n        /* \"#utility.yul\":2703:2706   */\n      dup4\n        /* \"#utility.yul\":2644:2711   */\n      tag_127\n      jump\t// in\n    tag_137:\n        /* \"#utility.yul\":2637:2711   */\n      swap2\n      pop\n        /* \"#utility.yul\":2720:2813   */\n      tag_138\n        /* \"#utility.yul\":2809:2812   */\n      dup3\n        /* \"#utility.yul\":2720:2813   */\n      tag_139\n      jump\t// in\n    tag_138:\n        /* \"#utility.yul\":2838:2840   */\n      0x20\n        /* \"#utility.yul\":2833:2836   */\n      dup3\n        /* \"#utility.yul\":2829:2841   */\n      add\n        /* \"#utility.yul\":2822:2841   */\n      swap1\n      pop\n        /* \"#utility.yul\":2481:2847   */\n      swap2\n      swap1\n      pop\n      jump\t// out\n        /* \"#utility.yul\":2853:3219   */\n    tag_140:\n        /* \"#utility.yul\":2995:2998   */\n      0x00\n        /* \"#utility.yul\":3016:3083   */\n      tag_142\n        /* \"#utility.yul\":3080:3082   */\n      0x24\n        /* \"#utility.yul\":3075:3078   */\n      dup4\n        /* \"#utility.yul\":3016:3083   */\n      tag_127\n      jump\t// in\n    tag_142:\n        /* \"#utility.yul\":3009:3083   */\n      swap2\n      pop\n        /* \"#utility.yul\":3092:3185   */\n      tag_143\n        /* \"#utility.yul\":3181:3184   */\n      dup3\n        /* \"#utility.yul\":3092:3185   */\n      tag_144\n      jump\t// in\n    tag_143:\n        /* \"#utility.yul\":3210:3212   */\n      0x40\n        /* \"#utility.yul\":3205:3208   */\n      dup3\n        /* \"#utility.yul\":3201:3213   */\n      add\n        /* \"#utility.yul\":3194:3213   */\n      swap1\n      pop\n        /* \"#utility.yul\":2853:3219   */\n      swap2\n      swap1\n      pop\n      jump\t// out\n        /* \"#utility.yul\":3225:3591   */\n    tag_145:\n        /* \"#utility.yul\":3367:3370   */\n      0x00\n        /* \"#utility.yul\":3388:3455   */\n      tag_147\n        /* \"#utility.yul\":3452:3454   */\n      0x0e\n        /* \"#utility.yul\":3447:3450   */\n      dup4\n        /* \"#utility.yul\":3388:3455   */\n      tag_127\n      jump\t// in\n    tag_147:\n        /* \"#utility.yul\":3381:3455   */\n      swap2\n      pop\n        /* \"#utility.yul\":3464:3557   */\n      tag_148\n        /* \"#utility.yul\":3553:3556   */\n      dup3\n        /* \"#utility.yul\":3464:3557   */\n      tag_149\n      jump\t// in\n    tag_148:\n        /* \"#utility.yul\":3582:3584   */\n      0x20\n        /* \"#utility.yul\":3577:3580   */\n      dup3\n        /* \"#utility.yul\":3573:3585   */\n      add\n        /* \"#utility.yul\":3566:3585   */\n      swap1\n      pop\n        /* \"#utility.yul\":3225:3591   */\n      swap2\n      swap1\n      pop\n      jump\t// out\n        /* \"#utility.yul\":3597:3963   */\n    tag_150:\n        /* \"#utility.yul\":3739:3742   */\n      0x00\n        /* \"#utility.yul\":3760:3827   */\n      tag_152\n        /* \"#utility.yul\":3824:3826   */\n      0x16\n        /* \"#utility.yul\":3819:3822   */\n      dup4\n        /* \"#utility.yul\":3760:3827   */\n      tag_127\n      jump\t// in\n    tag_152:\n        /* \"#utility.yul\":3753:3827   */\n      swap2\n      pop\n        /* \"#utility.yul\":3836:3929   */\n      tag_153\n        /* \"#utility.yul\":3925:3928   */\n      dup3\n        /* \"#utility.yul\":3836:3929   */\n      tag_154\n      jump\t// in\n    tag_153:\n        /* \"#utility.yul\":3954:3956   */\n      0x20\n        /* \"#utility.yul\":3949:3952   */\n      dup3\n        /* \"#utility.yul\":3945:3957   */\n      add\n        /* \"#utility.yul\":3938:3957   */\n      swap1\n      pop\n        /* \"#utility.yul\":3597:3963   */\n      swap2\n      swap1\n      pop\n      jump\t// out\n        /* \"#utility.yul\":3969:4335   */\n    tag_155:\n        /* \"#utility.yul\":4111:4114   */\n      0x00\n        /* \"#utility.yul\":4132:4199   */\n      tag_157\n        /* \"#utility.yul\":4196:4198   */\n      0x37\n        /* \"#utility.yul\":4191:4194   */\n      dup4\n        /* \"#utility.yul\":4132:4199   */\n      tag_127\n      jump\t// in\n    tag_157:\n        /* \"#utility.yul\":4125:4199   */\n      swap2\n      pop\n        /* \"#utility.yul\":4208:4301   */\n      tag_158\n        /* \"#utility.yul\":4297:4300   */\n      dup3\n        /* \"#utility.yul\":4208:4301   */\n      tag_159\n      jump\t// in\n    tag_158:\n        /* \"#utility.yul\":4326:4328   */\n      0x40\n        /* \"#utility.yul\":4321:4324   */\n      dup3\n        /* \"#utility.yul\":4317:4329   */\n      add\n        /* \"#utility.yul\":4310:4329   */\n      swap1\n      pop\n        /* \"#utility.yul\":3969:4335   */\n      swap2\n      swap1\n      pop\n      jump\t// out\n        /* \"#utility.yul\":4341:4707   */\n    tag_160:\n        /* \"#utility.yul\":4483:4486   */\n      0x00\n        /* \"#utility.yul\":4504:4571   */\n      tag_162\n        /* \"#utility.yul\":4568:4570   */\n      0x35\n        /* \"#utility.yul\":4563:4566   */\n      dup4\n        /* \"#utility.yul\":4504:4571   */\n      tag_127\n      jump\t// in\n    tag_162:\n        /* \"#utility.yul\":4497:4571   */\n      swap2\n      pop\n        /* \"#utility.yul\":4580:4673   */\n      tag_163\n        /* \"#utility.yul\":4669:4672   */\n      dup3\n        /* \"#utility.yul\":4580:4673   */\n      tag_164\n      jump\t// in\n    tag_163:\n        /* \"#utility.yul\":4698:4700   */\n      0x40\n        /* \"#utility.yul\":4693:4696   */\n      dup3\n        /* \"#utility.yul\":4689:4701   */\n      add\n        /* \"#utility.yul\":4682:4701   */\n      swap1\n      pop\n        /* \"#utility.yul\":4341:4707   */\n      swap2\n      swap1\n      pop\n      jump\t// out\n        /* \"#utility.yul\":4713:5079   */\n    tag_165:\n        /* \"#utility.yul\":4855:4858   */\n      0x00\n        /* \"#utility.yul\":4876:4943   */\n      tag_167\n        /* \"#utility.yul\":4940:4942   */\n      0x19\n        /* \"#utility.yul\":4935:4938   */\n      dup4\n        /* \"#utility.yul\":4876:4943   */\n      tag_127\n      jump\t// in\n    tag_167:\n        /* \"#utility.yul\":4869:4943   */\n      swap2\n      pop\n        /* \"#utility.yul\":4952:5045   */\n      tag_168\n        /* \"#utility.yul\":5041:5044   */\n      dup3\n        /* \"#utility.yul\":4952:5045   */\n      tag_169\n      jump\t// in\n    tag_168:\n        /* \"#utility.yul\":5070:5072   */\n      0x20\n        /* \"#utility.yul\":5065:5068   */\n      dup3\n        /* \"#utility.yul\":5061:5073   */\n      add\n        /* \"#utility.yul\":5054:5073   */\n      swap1\n      pop\n        /* \"#utility.yul\":4713:5079   */\n      swap2\n      swap1\n      pop\n      jump\t// out\n        /* \"#utility.yul\":5085:5203   */\n    tag_170:\n        /* \"#utility.yul\":5172:5196   */\n      tag_172\n        /* \"#utility.yul\":5190:5195   */\n      dup2\n        /* \"#utility.yul\":5172:5196   */\n      tag_173\n      jump\t// in\n    tag_172:\n        /* \"#utility.yul\":5167:5170   */\n      dup3\n        /* \"#utility.yul\":5160:5197   */\n      mstore\n        /* \"#utility.yul\":5085:5203   */\n      pop\n      pop\n      jump\t// out\n        /* \"#utility.yul\":5209:5628   */\n    tag_85:\n        /* \"#utility.yul\":5375:5379   */\n      0x00\n        /* \"#utility.yul\":5413:5415   */\n      0x20\n        /* \"#utility.yul\":5402:5411   */\n      dup3\n        /* \"#utility.yul\":5398:5416   */\n      add\n        /* \"#utility.yul\":5390:5416   */\n      swap1\n      pop\n        /* \"#utility.yul\":5462:5471   */\n      dup2\n        /* \"#utility.yul\":5456:5460   */\n      dup2\n        /* \"#utility.yul\":5452:5472   */\n      sub\n        /* \"#utility.yul\":5448:5449   */\n      0x00\n        /* \"#utility.yul\":5437:5446   */\n      dup4\n        /* \"#utility.yul\":5433:5450   */\n      add\n        /* \"#utility.yul\":5426:5473   */\n      mstore\n        /* \"#utility.yul\":5490:5621   */\n      tag_175\n        /* \"#utility.yul\":5616:5620   */\n      dup2\n        /* \"#utility.yul\":5490:5621   */\n      tag_124\n      jump\t// in\n    tag_175:\n        /* \"#utility.yul\":5482:5621   */\n      swap1\n      pop\n        /* \"#utility.yul\":5209:5628   */\n      swap2\n      swap1\n      pop\n      jump\t// out\n        /* \"#utility.yul\":5634:6053   */\n    tag_57:\n        /* \"#utility.yul\":5800:5804   */\n      0x00\n        /* \"#utility.yul\":5838:5840   */\n      0x20\n        /* \"#utility.yul\":5827:5836   */\n      dup3\n        /* \"#utility.yul\":5823:5841   */\n      add\n        /* \"#utility.yul\":5815:5841   */\n      swap1\n      pop\n        /* \"#utility.yul\":5887:5896   */\n      dup2\n        /* \"#utility.yul\":5881:5885   */\n      dup2\n        /* \"#utility.yul\":5877:5897   */\n      sub\n        /* \"#utility.yul\":5873:5874   */\n      0x00\n        /* \"#utility.yul\":5862:5871   */\n      dup4\n        /* \"#utility.yul\":5858:5875   */\n      add\n        /* \"#utility.yul\":5851:5898   */\n      mstore\n        /* \"#utility.yul\":5915:6046   */\n      tag_177\n        /* \"#utility.yul\":6041:6045   */\n      dup2\n        /* \"#utility.yul\":5915:6046   */\n      tag_130\n      jump\t// in\n    tag_177:\n        /* \"#utility.yul\":5907:6046   */\n      swap1\n      pop\n        /* \"#utility.yul\":5634:6053   */\n      swap2\n      swap1\n      pop\n      jump\t// out\n        /* \"#utility.yul\":6059:6478   */\n    tag_90:\n        /* \"#utility.yul\":6225:6229   */\n      0x00\n        /* \"#utility.yul\":6263:6265   */\n      0x20\n        /* \"#utility.yul\":6252:6261   */\n      dup3\n        /* \"#utility.yul\":6248:6266   */\n      add\n        /* \"#utility.yul\":6240:6266   */\n      swap1\n      pop\n        /* \"#utility.yul\":6312:6321   */\n      dup2\n        /* \"#utility.yul\":6306:6310   */\n      dup2\n        /* \"#utility.yul\":6302:6322   */\n      sub\n        /* \"#utility.yul\":6298:6299   */\n      0x00\n        /* \"#utility.yul\":6287:6296   */\n      dup4\n        /* \"#utility.yul\":6283:6300   */\n      add\n        /* \"#utility.yul\":6276:6323   */\n      mstore\n        /* \"#utility.yul\":6340:6471   */\n      tag_179\n        /* \"#utility.yul\":6466:6470   */\n      dup2\n        /* \"#utility.yul\":6340:6471   */\n      tag_135\n      jump\t// in\n    tag_179:\n        /* \"#utility.yul\":6332:6471   */\n      swap1\n      pop\n        /* \"#utility.yul\":6059:6478   */\n      swap2\n      swap1\n      pop\n      jump\t// out\n        /* \"#utility.yul\":6484:6903   */\n    tag_79:\n        /* \"#utility.yul\":6650:6654   */\n      0x00\n        /* \"#utility.yul\":6688:6690   */\n      0x20\n        /* \"#utility.yul\":6677:6686   */\n      dup3\n        /* \"#utility.yul\":6673:6691   */\n      add\n        /* \"#utility.yul\":6665:6691   */\n      swap1\n      pop\n        /* \"#utility.yul\":6737:6746   */\n      dup2\n        /* \"#utility.yul\":6731:6735   */\n      dup2\n        /* \"#utility.yul\":6727:6747   */\n      sub\n        /* \"#utility.yul\":6723:6724   */\n      0x00\n        /* \"#utility.yul\":6712:6721   */\n      dup4\n        /* \"#utility.yul\":6708:6725   */\n      add\n        /* \"#utility.yul\":6701:6748   */\n      mstore\n        /* \"#utility.yul\":6765:6896   */\n      tag_181\n        /* \"#utility.yul\":6891:6895   */\n      dup2\n        /* \"#utility.yul\":6765:6896   */\n      tag_140\n      jump\t// in\n    tag_181:\n        /* \"#utility.yul\":6757:6896   */\n      swap1\n      pop\n        /* \"#utility.yul\":6484:6903   */\n      swap2\n      swap1\n      pop\n      jump\t// out\n        /* \"#utility.yul\":6909:7328   */\n    tag_47:\n        /* \"#utility.yul\":7075:7079   */\n      0x00\n        /* \"#utility.yul\":7113:7115   */\n      0x20\n        /* \"#utility.yul\":7102:7111   */\n      dup3\n        /* \"#utility.yul\":7098:7116   */\n      add\n        /* \"#utility.yul\":7090:7116   */\n      swap1\n      pop\n        /* \"#utility.yul\":7162:7171   */\n      dup2\n        /* \"#utility.yul\":7156:7160   */\n      dup2\n        /* \"#utility.yul\":7152:7172   */\n      sub\n        /* \"#utility.yul\":7148:7149   */\n      0x00\n        /* \"#utility.yul\":7137:7146   */\n      dup4\n        /* \"#utility.yul\":7133:7150   */\n      add\n        /* \"#utility.yul\":7126:7173   */\n      mstore\n        /* \"#utility.yul\":7190:7321   */\n      tag_183\n        /* \"#utility.yul\":7316:7320   */\n      dup2\n        /* \"#utility.yul\":7190:7321   */\n      tag_145\n      jump\t// in\n    tag_183:\n        /* \"#utility.yul\":7182:7321   */\n      swap1\n      pop\n        /* \"#utility.yul\":6909:7328   */\n      swap2\n      swap1\n      pop\n      jump\t// out\n        /* \"#utility.yul\":7334:7753   */\n    tag_60:\n        /* \"#utility.yul\":7500:7504   */\n      0x00\n        /* \"#utility.yul\":7538:7540   */\n      0x20\n        /* \"#utility.yul\":7527:7536   */\n      dup3\n        /* \"#utility.yul\":7523:7541   */\n      add\n        /* \"#utility.yul\":7515:7541   */\n      swap1\n      pop\n        /* \"#utility.yul\":7587:7596   */\n      dup2\n        /* \"#utility.yul\":7581:7585   */\n      dup2\n        /* \"#utility.yul\":7577:7597   */\n      sub\n        /* \"#utility.yul\":7573:7574   */\n      0x00\n        /* \"#utility.yul\":7562:7571   */\n      dup4\n        /* \"#utility.yul\":7558:7575   */\n      add\n        /* \"#utility.yul\":7551:7598   */\n      mstore\n        /* \"#utility.yul\":7615:7746   */\n      tag_185\n        /* \"#utility.yul\":7741:7745   */\n      dup2\n        /* \"#utility.yul\":7615:7746   */\n      tag_150\n      jump\t// in\n    tag_185:\n        /* \"#utility.yul\":7607:7746   */\n      swap1\n      pop\n        /* \"#utility.yul\":7334:7753   */\n      swap2\n      swap1\n      pop\n      jump\t// out\n        /* \"#utility.yul\":7759:8178   */\n    tag_66:\n        /* \"#utility.yul\":7925:7929   */\n      0x00\n        /* \"#utility.yul\":7963:7965   */\n      0x20\n        /* \"#utility.yul\":7952:7961   */\n      dup3\n        /* \"#utility.yul\":7948:7966   */\n      add\n        /* \"#utility.yul\":7940:7966   */\n      swap1\n      pop\n        /* \"#utility.yul\":8012:8021   */\n      dup2\n        /* \"#utility.yul\":8006:8010   */\n      dup2\n        /* \"#utility.yul\":8002:8022   */\n      sub\n        /* \"#utility.yul\":7998:7999   */\n      0x00\n        /* \"#utility.yul\":7987:7996   */\n      dup4\n        /* \"#utility.yul\":7983:8000   */\n      add\n        /* \"#utility.yul\":7976:8023   */\n      mstore\n        /* \"#utility.yul\":8040:8171   */\n      tag_187\n        /* \"#utility.yul\":8166:8170   */\n      dup2\n        /* \"#utility.yul\":8040:8171   */\n      tag_155\n      jump\t// in\n    tag_187:\n        /* \"#utility.yul\":8032:8171   */\n      swap1\n      pop\n        /* \"#utility.yul\":7759:8178   */\n      swap2\n      swap1\n      pop\n      jump\t// out\n        /* \"#utility.yul\":8184:8603   */\n    tag_69:\n        /* \"#utility.yul\":8350:8354   */\n      0x00\n        /* \"#utility.yul\":8388:8390   */\n      0x20\n        /* \"#utility.yul\":8377:8386   */\n      dup3\n        /* \"#utility.yul\":8373:8391   */\n      add\n        /* \"#utility.yul\":8365:8391   */\n      swap1\n      pop\n        /* \"#utility.yul\":8437:8446   */\n      dup2\n        /* \"#utility.yul\":8431:8435   */\n      dup2\n        /* \"#utility.yul\":8427:8447   */\n      sub\n        /* \"#utility.yul\":8423:8424   */\n      0x00\n        /* \"#utility.yul\":8412:8421   */\n      dup4\n        /* \"#utility.yul\":8408:8425   */\n      add\n        /* \"#utility.yul\":8401:8448   */\n      mstore\n        /* \"#utility.yul\":8465:8596   */\n      tag_189\n        /* \"#utility.yul\":8591:8595   */\n      dup2\n        /* \"#utility.yul\":8465:8596   */\n      tag_160\n      jump\t// in\n    tag_189:\n        /* \"#utility.yul\":8457:8596   */\n      swap1\n      pop\n        /* \"#utility.yul\":8184:8603   */\n      swap2\n      swap1\n      pop\n      jump\t// out\n        /* \"#utility.yul\":8609:9028   */\n    tag_76:\n        /* \"#utility.yul\":8775:8779   */\n      0x00\n        /* \"#utility.yul\":8813:8815   */\n      0x20\n        /* \"#utility.yul\":8802:8811   */\n      dup3\n        /* \"#utility.yul\":8798:8816   */\n      add\n        /* \"#utility.yul\":8790:8816   */\n      swap1\n      pop\n        /* \"#utility.yul\":8862:8871   */\n      dup2\n        /* \"#utility.yul\":8856:8860   */\n      dup2\n        /* \"#utility.yul\":8852:8872   */\n      sub\n        /* \"#utility.yul\":8848:8849   */\n      0x00\n        /* \"#utility.yul\":8837:8846   */\n      dup4\n        /* \"#utility.yul\":8833:8850   */\n      add\n        /* \"#utility.yul\":8826:8873   */\n      mstore\n        /* \"#utility.yul\":8890:9021   */\n      tag_191\n        /* \"#utility.yul\":9016:9020   */\n      dup2\n        /* \"#utility.yul\":8890:9021   */\n      tag_165\n      jump\t// in\n    tag_191:\n        /* \"#utility.yul\":8882:9021   */\n      swap1\n      pop\n        /* \"#utility.yul\":8609:9028   */\n      swap2\n      swap1\n      pop\n      jump\t// out\n        /* \"#utility.yul\":9034:9256   */\n    tag_43:\n        /* \"#utility.yul\":9127:9131   */\n      0x00\n        /* \"#utility.yul\":9165:9167   */\n      0x20\n        /* \"#utility.yul\":9154:9163   */\n      dup3\n        /* \"#utility.yul\":9150:9168   */\n      add\n        /* \"#utility.yul\":9142:9168   */\n      swap1\n      pop\n        /* \"#utility.yul\":9178:9249   */\n      tag_193\n        /* \"#utility.yul\":9246:9247   */\n      0x00\n        /* \"#utility.yul\":9235:9244   */\n      dup4\n        /* \"#utility.yul\":9231:9248   */\n      add\n        /* \"#utility.yul\":9222:9228   */\n      dup5\n        /* \"#utility.yul\":9178:9249   */\n      tag_170\n      jump\t// in\n    tag_193:\n        /* \"#utility.yul\":9034:9256   */\n      swap3\n      swap2\n      pop\n      pop\n      jump\t// out\n        /* \"#utility.yul\":9343:9512   */\n    tag_127:\n        /* \"#utility.yul\":9427:9438   */\n      0x00\n        /* \"#utility.yul\":9461:9467   */\n      dup3\n        /* \"#utility.yul\":9456:9459   */\n      dup3\n        /* \"#utility.yul\":9449:9468   */\n      mstore\n        /* \"#utility.yul\":9501:9505   */\n      0x20\n        /* \"#utility.yul\":9496:9499   */\n      dup3\n        /* \"#utility.yul\":9492:9506   */\n      add\n        /* \"#utility.yul\":9477:9506   */\n      swap1\n      pop\n        /* \"#utility.yul\":9343:9512   */\n      swap3\n      swap2\n      pop\n      pop\n      jump\t// out\n        /* \"#utility.yul\":9518:9823   */\n    tag_51:\n        /* \"#utility.yul\":9558:9561   */\n      0x00\n        /* \"#utility.yul\":9577:9597   */\n      tag_198\n        /* \"#utility.yul\":9595:9596   */\n      dup3\n        /* \"#utility.yul\":9577:9597   */\n      tag_173\n      jump\t// in\n    tag_198:\n        /* \"#utility.yul\":9572:9597   */\n      swap2\n      pop\n        /* \"#utility.yul\":9611:9631   */\n      tag_199\n        /* \"#utility.yul\":9629:9630   */\n      dup4\n        /* \"#utility.yul\":9611:9631   */\n      tag_173\n      jump\t// in\n    tag_199:\n        /* \"#utility.yul\":9606:9631   */\n      swap3\n      pop\n        /* \"#utility.yul\":9765:9766   */\n      dup3\n        /* \"#utility.yul\":9697:9763   */\n      0xffffffffffffffffffffffffffffffffffffffffffffffffffffffffffffffff\n        /* \"#utility.yul\":9693:9767   */\n      sub\n        /* \"#utility.yul\":9690:9691   */\n      dup3\n        /* \"#utility.yul\":9687:9768   */\n      gt\n        /* \"#utility.yul\":9684:9791   */\n      iszero\n      tag_200\n      jumpi\n        /* \"#utility.yul\":9771:9789   */\n      tag_201\n      tag_202\n      jump\t// in\n    tag_201:\n        /* \"#utility.yul\":9684:9791   */\n    tag_200:\n        /* \"#utility.yul\":9815:9816   */\n      dup3\n        /* \"#utility.yul\":9812:9813   */\n      dup3\n        /* \"#utility.yul\":9808:9817   */\n      add\n        /* \"#utility.yul\":9801:9817   */\n      swap1\n      pop\n        /* \"#utility.yul\":9518:9823   */\n      swap3\n      swap2\n      pop\n      pop\n      jump\t// out\n        /* \"#utility.yul\":9829:10014   */\n    tag_49:\n        /* \"#utility.yul\":9869:9870   */\n      0x00\n        /* \"#utility.yul\":9886:9906   */\n      tag_204\n        /* \"#utility.yul\":9904:9905   */\n      dup3\n        /* \"#utility.yul\":9886:9906   */\n      tag_173\n      jump\t// in\n    tag_204:\n        /* \"#utility.yul\":9881:9906   */\n      swap2\n      pop\n        /* \"#utility.yul\":9920:9940   */\n      tag_205\n        /* \"#utility.yul\":9938:9939   */\n      dup4\n        /* \"#utility.yul\":9920:9940   */\n      tag_173\n      jump\t// in\n    tag_205:\n        /* \"#utility.yul\":9915:9940   */\n      swap3\n      pop\n        /* \"#utility.yul\":9959:9960   */\n      dup3\n        /* \"#utility.yul\":9949:9984   */\n      tag_206\n      jumpi\n        /* \"#utility.yul\":9964:9982   */\n      tag_207\n      tag_208\n      jump\t// in\n    tag_207:\n        /* \"#utility.yul\":9949:9984   */\n    tag_206:\n        /* \"#utility.yul\":10006:10007   */\n      dup3\n        /* \"#utility.yul\":10003:10004   */\n      dup3\n        /* \"#utility.yul\":9999:10008   */\n      div\n        /* \"#utility.yul\":9994:10008   */\n      swap1\n      pop\n        /* \"#utility.yul\":9829:10014   */\n      swap3\n      swap2\n      pop\n      pop\n      jump\t// out\n        /* \"#utility.yul\":10020:10211   */\n    tag_71:\n        /* \"#utility.yul\":10060:10064   */\n      0x00\n        /* \"#utility.yul\":10080:10100   */\n      tag_210\n        /* \"#utility.yul\":10098:10099   */\n      dup3\n        /* \"#utility.yul\":10080:10100   */\n      tag_173\n      jump\t// in\n    tag_210:\n        /* \"#utility.yul\":10075:10100   */\n      swap2\n      pop\n        /* \"#utility.yul\":10114:10134   */\n      tag_211\n        /* \"#utility.yul\":10132:10133   */\n      dup4\n        /* \"#utility.yul\":10114:10134   */\n      tag_173\n      jump\t// in\n    tag_211:\n        /* \"#utility.yul\":10109:10134   */\n      swap3\n      pop\n        /* \"#utility.yul\":10153:10154   */\n      dup3\n        /* \"#utility.yul\":10150:10151   */\n      dup3\n        /* \"#utility.yul\":10147:10155   */\n      lt\n        /* \"#utility.yul\":10144:10178   */\n      iszero\n      tag_212\n      jumpi\n        /* \"#utility.yul\":10158:10176   */\n      tag_213\n      tag_202\n      jump\t// in\n    tag_213:\n        /* \"#utility.yul\":10144:10178   */\n    tag_212:\n        /* \"#utility.yul\":10203:10204   */\n      dup3\n        /* \"#utility.yul\":10200:10201   */\n      dup3\n        /* \"#utility.yul\":10196:10205   */\n      sub\n        /* \"#utility.yul\":10188:10205   */\n      swap1\n      pop\n        /* \"#utility.yul\":10020:10211   */\n      swap3\n      swap2\n      pop\n      pop\n      jump\t// out\n        /* \"#utility.yul\":10217:10313   */\n    tag_214:\n        /* \"#utility.yul\":10254:10261   */\n      0x00\n        /* \"#utility.yul\":10283:10307   */\n      tag_216\n        /* \"#utility.yul\":10301:10306   */\n      dup3\n        /* \"#utility.yul\":10283:10307   */\n      tag_217\n      jump\t// in\n    tag_216:\n        /* \"#utility.yul\":10272:10307   */\n      swap1\n      pop\n        /* \"#utility.yul\":10217:10313   */\n      swap2\n      swap1\n      pop\n      jump\t// out\n        /* \"#utility.yul\":10319:10396   */\n    tag_218:\n        /* \"#utility.yul\":10356:10363   */\n      0x00\n        /* \"#utility.yul\":10385:10390   */\n      dup2\n        /* \"#utility.yul\":10374:10390   */\n      swap1\n      pop\n        /* \"#utility.yul\":10319:10396   */\n      swap2\n      swap1\n      pop\n      jump\t// out\n        /* \"#utility.yul\":10402:10528   */\n    tag_217:\n        /* \"#utility.yul\":10439:10446   */\n      0x00\n        /* \"#utility.yul\":10479:10521   */\n      0xffffffffffffffffffffffffffffffffffffffff\n        /* \"#utility.yul\":10472:10477   */\n      dup3\n        /* \"#utility.yul\":10468:10522   */\n      and\n        /* \"#utility.yul\":10457:10522   */\n      swap1\n      pop\n        /* \"#utility.yul\":10402:10528   */\n      swap2\n      swap1\n      pop\n      jump\t// out\n        /* \"#utility.yul\":10534:10611   */\n    tag_173:\n        /* \"#utility.yul\":10571:10578   */\n      0x00\n        /* \"#utility.yul\":10600:10605   */\n      dup2\n        /* \"#utility.yul\":10589:10605   */\n      swap1\n      pop\n        /* \"#utility.yul\":10534:10611   */\n      swap2\n      swap1\n      pop\n      jump\t// out\n        /* \"#utility.yul\":10617:10797   */\n    tag_202:\n        /* \"#utility.yul\":10665:10742   */\n      0x4e487b7100000000000000000000000000000000000000000000000000000000\n        /* \"#utility.yul\":10662:10663   */\n      0x00\n        /* \"#utility.yul\":10655:10743   */\n      mstore\n        /* \"#utility.yul\":10762:10766   */\n      0x11\n        /* \"#utility.yul\":10759:10760   */\n      0x04\n        /* \"#utility.yul\":10752:10767   */\n      mstore\n        /* \"#utility.yul\":10786:10790   */\n      0x24\n        /* \"#utility.yul\":10783:10784   */\n      0x00\n        /* \"#utility.yul\":10776:10791   */\n      revert\n        /* \"#utility.yul\":10803:10983   */\n    tag_208:\n        /* \"#utility.yul\":10851:10928   */\n      0x4e487b7100000000000000000000000000000000000000000000000000000000\n        /* \"#utility.yul\":10848:10849   */\n      0x00\n        /* \"#utility.yul\":10841:10929   */\n      mstore\n        /* \"#utility.yul\":10948:10952   */\n      0x12\n        /* \"#utility.yul\":10945:10946   */\n      0x04\n        /* \"#utility.yul\":10938:10953   */\n      mstore\n        /* \"#utility.yul\":10972:10976   */\n      0x24\n        /* \"#utility.yul\":10969:10970   */\n      0x00\n        /* \"#utility.yul\":10962:10977   */\n      revert\n        /* \"#utility.yul\":11112:11229   */\n    tag_112:\n        /* \"#utility.yul\":11221:11222   */\n      0x00\n        /* \"#utility.yul\":11218:11219   */\n      dup1\n        /* \"#utility.yul\":11211:11223   */\n      revert\n        /* \"#utility.yul\":11235:11457   */\n    tag_129:\n        /* \"#utility.yul\":11375:11409   */\n      0x796f75206e65656420746f20626520746865206f776e6572206f662074686520\n        /* \"#utility.yul\":11371:11372   */\n      0x00\n        /* \"#utility.yul\":11363:11369   */\n      dup3\n        /* \"#utility.yul\":11359:11373   */\n      add\n        /* \"#utility.yul\":11352:11410   */\n      mstore\n        /* \"#utility.yul\":11444:11449   */\n      0x4e46540000000000000000000000000000000000000000000000000000000000\n        /* \"#utility.yul\":11439:11441   */\n      0x20\n        /* \"#utility.yul\":11431:11437   */\n      dup3\n        /* \"#utility.yul\":11427:11442   */\n      add\n        /* \"#utility.yul\":11420:11450   */\n      mstore\n        /* \"#utility.yul\":11235:11457   */\n      pop\n      jump\t// out\n        /* \"#utility.yul\":11463:11643   */\n    tag_134:\n        /* \"#utility.yul\":11603:11635   */\n      0x596f7520617265206e6f742074686520636f6e7472616374206f776e65720000\n        /* \"#utility.yul\":11599:11600   */\n      0x00\n        /* \"#utility.yul\":11591:11597   */\n      dup3\n        /* \"#utility.yul\":11587:11601   */\n      add\n        /* \"#utility.yul\":11580:11636   */\n      mstore\n        /* \"#utility.yul\":11463:11643   */\n      pop\n      jump\t// out\n        /* \"#utility.yul\":11649:11820   */\n    tag_139:\n        /* \"#utility.yul\":11789:11812   */\n      0x596f752772652061206a65726b2c20616761696e210000000000000000000000\n        /* \"#utility.yul\":11785:11786   */\n      0x00\n        /* \"#utility.yul\":11777:11783   */\n      dup3\n        /* \"#utility.yul\":11773:11787   */\n      add\n        /* \"#utility.yul\":11766:11813   */\n      mstore\n        /* \"#utility.yul\":11649:11820   */\n      pop\n      jump\t// out\n        /* \"#utility.yul\":11826:12049   */\n    tag_144:\n        /* \"#utility.yul\":11966:12000   */\n      0x796f75206e65656420656e6f75676820657468657220746f2062757920746865\n        /* \"#utility.yul\":11962:11963   */\n      0x00\n        /* \"#utility.yul\":11954:11960   */\n      dup3\n        /* \"#utility.yul\":11950:11964   */\n      add\n        /* \"#utility.yul\":11943:12001   */\n      mstore\n        /* \"#utility.yul\":12035:12041   */\n      0x204e465400000000000000000000000000000000000000000000000000000000\n        /* \"#utility.yul\":12030:12032   */\n      0x20\n        /* \"#utility.yul\":12022:12028   */\n      dup3\n        /* \"#utility.yul\":12018:12033   */\n      add\n        /* \"#utility.yul\":12011:12042   */\n      mstore\n        /* \"#utility.yul\":11826:12049   */\n      pop\n      jump\t// out\n        /* \"#utility.yul\":12055:12219   */\n    tag_149:\n        /* \"#utility.yul\":12195:12211   */\n      0x596f752772652061206a65726b21000000000000000000000000000000000000\n        /* \"#utility.yul\":12191:12192   */\n      0x00\n        /* \"#utility.yul\":12183:12189   */\n      dup3\n        /* \"#utility.yul\":12179:12193   */\n      add\n        /* \"#utility.yul\":12172:12212   */\n      mstore\n        /* \"#utility.yul\":12055:12219   */\n      pop\n      jump\t// out\n        /* \"#utility.yul\":12225:12397   */\n    tag_154:\n        /* \"#utility.yul\":12365:12389   */\n      0x546865204e465420616c72656164792065786973747300000000000000000000\n        /* \"#utility.yul\":12361:12362   */\n      0x00\n        /* \"#utility.yul\":12353:12359   */\n      dup3\n        /* \"#utility.yul\":12349:12363   */\n      add\n        /* \"#utility.yul\":12342:12390   */\n      mstore\n        /* \"#utility.yul\":12225:12397   */\n      pop\n      jump\t// out\n        /* \"#utility.yul\":12403:12645   */\n    tag_159:\n        /* \"#utility.yul\":12543:12577   */\n      0x746865204e465420686173206e65766572206265656e20676f7420627920616e\n        /* \"#utility.yul\":12539:12540   */\n      0x00\n        /* \"#utility.yul\":12531:12537   */\n      dup3\n        /* \"#utility.yul\":12527:12541   */\n      add\n        /* \"#utility.yul\":12520:12578   */\n      mstore\n        /* \"#utility.yul\":12612:12637   */\n      0x796f6e65202877697468207375706572546f6b656e7329000000000000000000\n        /* \"#utility.yul\":12607:12609   */\n      0x20\n        /* \"#utility.yul\":12599:12605   */\n      dup3\n        /* \"#utility.yul\":12595:12610   */\n      add\n        /* \"#utility.yul\":12588:12638   */\n      mstore\n        /* \"#utility.yul\":12403:12645   */\n      pop\n      jump\t// out\n        /* \"#utility.yul\":12651:12891   */\n    tag_164:\n        /* \"#utility.yul\":12791:12825   */\n      0x7468652073656e64657220686173206e6f7420656e6f75676820737570657220\n        /* \"#utility.yul\":12787:12788   */\n      0x00\n        /* \"#utility.yul\":12779:12785   */\n      dup3\n        /* \"#utility.yul\":12775:12789   */\n      add\n        /* \"#utility.yul\":12768:12826   */\n      mstore\n        /* \"#utility.yul\":12860:12883   */\n      0x746f6b656e7320746f2067657420746865204e46540000000000000000000000\n        /* \"#utility.yul\":12855:12857   */\n      0x20\n        /* \"#utility.yul\":12847:12853   */\n      dup3\n        /* \"#utility.yul\":12843:12858   */\n      add\n        /* \"#utility.yul\":12836:12884   */\n      mstore\n        /* \"#utility.yul\":12651:12891   */\n      pop\n      jump\t// out\n        /* \"#utility.yul\":12897:13072   */\n    tag_169:\n        /* \"#utility.yul\":13037:13064   */\n      0x746865204e4654206973206e6f74206265696e6720736f6c6400000000000000\n        /* \"#utility.yul\":13033:13034   */\n      0x00\n        /* \"#utility.yul\":13025:13031   */\n      dup3\n        /* \"#utility.yul\":13021:13035   */\n      add\n        /* \"#utility.yul\":13014:13065   */\n      mstore\n        /* \"#utility.yul\":12897:13072   */\n      pop\n      jump\t// out\n        /* \"#utility.yul\":13078:13200   */\n    tag_100:\n        /* \"#utility.yul\":13151:13175   */\n      tag_237\n        /* \"#utility.yul\":13169:13174   */\n      dup2\n        /* \"#utility.yul\":13151:13175   */\n      tag_214\n      jump\t// in\n    tag_237:\n        /* \"#utility.yul\":13144:13149   */\n      dup2\n        /* \"#utility.yul\":13141:13176   */\n      eq\n        /* \"#utility.yul\":13131:13194   */\n      tag_238\n      jumpi\n        /* \"#utility.yul\":13190:13191   */\n      0x00\n        /* \"#utility.yul\":13187:13188   */\n      dup1\n        /* \"#utility.yul\":13180:13192   */\n      revert\n        /* \"#utility.yul\":13131:13194   */\n    tag_238:\n        /* \"#utility.yul\":13078:13200   */\n      pop\n      jump\t// out\n        /* \"#utility.yul\":13206:13328   */\n    tag_104:\n        /* \"#utility.yul\":13279:13303   */\n      tag_240\n        /* \"#utility.yul\":13297:13302   */\n      dup2\n        /* \"#utility.yul\":13279:13303   */\n      tag_218\n      jump\t// in\n    tag_240:\n        /* \"#utility.yul\":13272:13277   */\n      dup2\n        /* \"#utility.yul\":13269:13304   */\n      eq\n        /* \"#utility.yul\":13259:13322   */\n      tag_241\n      jumpi\n        /* \"#utility.yul\":13318:13319   */\n      0x00\n        /* \"#utility.yul\":13315:13316   */\n      dup1\n        /* \"#utility.yul\":13308:13320   */\n      revert\n        /* \"#utility.yul\":13259:13322   */\n    tag_241:\n        /* \"#utility.yul\":13206:13328   */\n      pop\n      jump\t// out\n        /* \"#utility.yul\":13334:13456   */\n    tag_108:\n        /* \"#utility.yul\":13407:13431   */\n      tag_243\n        /* \"#utility.yul\":13425:13430   */\n      dup2\n        /* \"#utility.yul\":13407:13431   */\n      tag_173\n      jump\t// in\n    tag_243:\n        /* \"#utility.yul\":13400:13405   */\n      dup2\n        /* \"#utility.yul\":13397:13432   */\n      eq\n        /* \"#utility.yul\":13387:13450   */\n      tag_244\n      jumpi\n        /* \"#utility.yul\":13446:13447   */\n      0x00\n        /* \"#utility.yul\":13443:13444   */\n      dup1\n        /* \"#utility.yul\":13436:13448   */\n      revert\n        /* \"#utility.yul\":13387:13450   */\n    tag_244:\n        /* \"#utility.yul\":13334:13456   */\n      pop\n      jump\t// out\n\n    auxdata: 0xa264697066735822122075afb11a0cd42df397c480a7a194efaf6228d6b932f3411f0058e7e8d01e03f864736f6c63430008070033\n}\n",
				"bytecode": {
					"linkReferences": {},
					"object": "608060405234801561001057600080fd5b50336000806101000a81548173ffffffffffffffffffffffffffffffffffffffff021916908373ffffffffffffffffffffffffffffffffffffffff1602179055506113e9806100606000396000f3fe60806040526004361061007b5760003560e01c806350e16eb51161004e57806350e16eb514610105578063540d0de714610121578063640238b41461014a5780638d859f3e146101735761007b565b80631249c58b1461008057806326a886851461008a5780632866a38b146100b35780633f8c6138146100dc575b600080fd5b61008861019e565b005b34801561009657600080fd5b506100b160048036038101906100ac9190610d2b565b6102b9565b005b3480156100bf57600080fd5b506100da60048036038101906100d59190610cbe565b6104a2565b005b3480156100e857600080fd5b5061010360048036038101906100fe9190610d2b565b6104fc565b005b61011f600480360381019061011a9190610cfe565b610794565b005b34801561012d57600080fd5b5061014860048036038101906101439190610d2b565b610925565b005b34801561015657600080fd5b50610171600480360381019061016c9190610d2b565b610a17565b005b34801561017f57600080fd5b50610188610c74565b6040516101959190610fd5565b60405180910390f35b66038d7ea4c680003410156101e8576040517f08c379a00000000000000000000000000000000000000000000000000000000081526004016101df90610f35565b60405180910390fd5b66038d7ea4c68000346101fb9190611057565b600160003373ffffffffffffffffffffffffffffffffffffffff1673ffffffffffffffffffffffffffffffffffffffff16815260200190815260200160002060008282546102499190611001565b9250508190555060008054906101000a900473ffffffffffffffffffffffffffffffffffffffff1673ffffffffffffffffffffffffffffffffffffffff166108fc349081150290604051600060405180830381858888f193505050501580156102b6573d6000803e3d6000fd5b50565b60008054906101000a900473ffffffffffffffffffffffffffffffffffffffff1673ffffffffffffffffffffffffffffffffffffffff163373ffffffffffffffffffffffffffffffffffffffff1614610347576040517f08c379a000000000000000000000000000000000000000000000000000000000815260040161033e90610ed5565b60405180910390fd5b6000801b6003600084815260200190815260200160002060000154146103a2576040517f08c379a000000000000000000000000000000000000000000000000000000000815260040161039990610f55565b60405180910390fd5b6040518060a001604052808381526020016000151581526020018281526020016000815260200160008054906101000a900473ffffffffffffffffffffffffffffffffffffffff1673ffffffffffffffffffffffffffffffffffffffff16815250600360008481526020019081526020016000206000820151816000015560208201518160010160006101000a81548160ff021916908315150217905550604082015181600201556060820151816003015560808201518160040160006101000a81548173ffffffffffffffffffffffffffffffffffffffff021916908373ffffffffffffffffffffffffffffffffffffffff1602179055509050505050565b80600260008473ffffffffffffffffffffffffffffffffffffffff1673ffffffffffffffffffffffffffffffffffffffff16815260200190815260200160002060008282546104f19190611001565b925050819055505050565b60008054906101000a900473ffffffffffffffffffffffffffffffffffffffff1673ffffffffffffffffffffffffffffffffffffffff166003600084815260200190815260200160002060040160009054906101000a900473ffffffffffffffffffffffffffffffffffffffff1673ffffffffffffffffffffffffffffffffffffffff16146105c0576040517f08c379a00000000000000000000000000000000000000000000000000000000081526004016105b790610f75565b60405180910390fd5b6003600083815260200190815260200160002060020154600260003373ffffffffffffffffffffffffffffffffffffffff1673ffffffffffffffffffffffffffffffffffffffff168152602001908152602001600020541015610658576040517f08c379a000000000000000000000000000000000000000000000000000000000815260040161064f90610f95565b60405180910390fd5b6003600083815260200190815260200160002060020154600260003373ffffffffffffffffffffffffffffffffffffffff1673ffffffffffffffffffffffffffffffffffffffff16815260200190815260200160002060008282546106bd9190611088565b92505081905550336003600084815260200190815260200160002060040160006101000a81548173ffffffffffffffffffffffffffffffffffffffff021916908373ffffffffffffffffffffffffffffffffffffffff16021790555060008114156003600084815260200190815260200160002060010160006101000a81548160ff0219169083151502179055506003600083815260200190815260200160002060010160009054906101000a900460ff1615610790578060036000848152602001908152602001600020600301819055505b5050565b6003600082815260200190815260200160002060010160009054906101000a900460ff166107f7576040517f08c379a00000000000000000000000000000000000000000000000000000000081526004016107ee90610fb5565b60405180910390fd5b6003600082815260200190815260200160002060030154341015610850576040517f08c379a000000000000000000000000000000000000000000000000000000000815260040161084790610f15565b60405180910390fd5b6003600082815260200190815260200160002060040160009054906101000a900473ffffffffffffffffffffffffffffffffffffffff1673ffffffffffffffffffffffffffffffffffffffff166108fc349081150290604051600060405180830381858888f193505050501580156108cc573d6000803e3d6000fd5b50336003600083815260200190815260200160002060040160006101000a81548173ffffffffffffffffffffffffffffffffffffffff021916908373ffffffffffffffffffffffffffffffffffffffff16021790555050565b6003600083815260200190815260200160002060040160009054906101000a900473ffffffffffffffffffffffffffffffffffffffff1673ffffffffffffffffffffffffffffffffffffffff163373ffffffffffffffffffffffffffffffffffffffff16146109c9576040517f08c379a00000000000000000000000000000000000000000000000000000000081526004016109c090610eb5565b60405180910390fd5b80600360008481526020019081526020016000206003018190555060016003600084815260200190815260200160002060010160006101000a81548160ff0219169083151502179055505050565b80600260003373ffffffffffffffffffffffffffffffffffffffff1673ffffffffffffffffffffffffffffffffffffffff16815260200190815260200160002054600160003373ffffffffffffffffffffffffffffffffffffffff1673ffffffffffffffffffffffffffffffffffffffff16815260200190815260200160002054610aa29190611001565b1015610ae3576040517f08c379a0000000000000000000000000000000000000000000000000000000008152600401610ada90610ef5565b60405180910390fd5b80600160003373ffffffffffffffffffffffffffffffffffffffff1673ffffffffffffffffffffffffffffffffffffffff1681526020019081526020016000205410610b845780600160003373ffffffffffffffffffffffffffffffffffffffff1673ffffffffffffffffffffffffffffffffffffffff1681526020019081526020016000206000828254610b789190611088565b92505081905550610c70565b6000600160003373ffffffffffffffffffffffffffffffffffffffff1673ffffffffffffffffffffffffffffffffffffffff1681526020019081526020016000205482610bd19190611088565b90506000600160003373ffffffffffffffffffffffffffffffffffffffff1673ffffffffffffffffffffffffffffffffffffffff1681526020019081526020016000208190555080600260003373ffffffffffffffffffffffffffffffffffffffff1673ffffffffffffffffffffffffffffffffffffffff1681526020019081526020016000206000828254610c679190611088565b92505081905550505b5050565b66038d7ea4c6800081565b600081359050610c8e8161136e565b92915050565b600081359050610ca381611385565b92915050565b600081359050610cb88161139c565b92915050565b60008060408385031215610cd557610cd4611160565b5b6000610ce385828601610c7f565b9250506020610cf485828601610ca9565b9150509250929050565b600060208284031215610d1457610d13611160565b5b6000610d2284828501610c94565b91505092915050565b60008060408385031215610d4257610d41611160565b5b6000610d5085828601610c94565b9250506020610d6185828601610ca9565b9150509250929050565b6000610d78602383610ff0565b9150610d8382611165565b604082019050919050565b6000610d9b601e83610ff0565b9150610da6826111b4565b602082019050919050565b6000610dbe601583610ff0565b9150610dc9826111dd565b602082019050919050565b6000610de1602483610ff0565b9150610dec82611206565b604082019050919050565b6000610e04600e83610ff0565b9150610e0f82611255565b602082019050919050565b6000610e27601683610ff0565b9150610e328261127e565b602082019050919050565b6000610e4a603783610ff0565b9150610e55826112a7565b604082019050919050565b6000610e6d603583610ff0565b9150610e78826112f6565b604082019050919050565b6000610e90601983610ff0565b9150610e9b82611345565b602082019050919050565b610eaf816110f8565b82525050565b60006020820190508181036000830152610ece81610d6b565b9050919050565b60006020820190508181036000830152610eee81610d8e565b9050919050565b60006020820190508181036000830152610f0e81610db1565b9050919050565b60006020820190508181036000830152610f2e81610dd4565b9050919050565b60006020820190508181036000830152610f4e81610df7565b9050919050565b60006020820190508181036000830152610f6e81610e1a565b9050919050565b60006020820190508181036000830152610f8e81610e3d565b9050919050565b60006020820190508181036000830152610fae81610e60565b9050919050565b60006020820190508181036000830152610fce81610e83565b9050919050565b6000602082019050610fea6000830184610ea6565b92915050565b600082825260208201905092915050565b600061100c826110f8565b9150611017836110f8565b9250827fffffffffffffffffffffffffffffffffffffffffffffffffffffffffffffffff0382111561104c5761104b611102565b5b828201905092915050565b6000611062826110f8565b915061106d836110f8565b92508261107d5761107c611131565b5b828204905092915050565b6000611093826110f8565b915061109e836110f8565b9250828210156110b1576110b0611102565b5b828203905092915050565b60006110c7826110d8565b9050919050565b6000819050919050565b600073ffffffffffffffffffffffffffffffffffffffff82169050919050565b6000819050919050565b7f4e487b7100000000000000000000000000000000000000000000000000000000600052601160045260246000fd5b7f4e487b7100000000000000000000000000000000000000000000000000000000600052601260045260246000fd5b600080fd5b7f796f75206e65656420746f20626520746865206f776e6572206f66207468652060008201527f4e46540000000000000000000000000000000000000000000000000000000000602082015250565b7f596f7520617265206e6f742074686520636f6e7472616374206f776e65720000600082015250565b7f596f752772652061206a65726b2c20616761696e210000000000000000000000600082015250565b7f796f75206e65656420656e6f75676820657468657220746f206275792074686560008201527f204e465400000000000000000000000000000000000000000000000000000000602082015250565b7f596f752772652061206a65726b21000000000000000000000000000000000000600082015250565b7f546865204e465420616c72656164792065786973747300000000000000000000600082015250565b7f746865204e465420686173206e65766572206265656e20676f7420627920616e60008201527f796f6e65202877697468207375706572546f6b656e7329000000000000000000602082015250565b7f7468652073656e64657220686173206e6f7420656e6f7567682073757065722060008201527f746f6b656e7320746f2067657420746865204e46540000000000000000000000602082015250565b7f746865204e4654206973206e6f74206265696e6720736f6c6400000000000000600082015250565b611377816110bc565b811461138257600080fd5b50565b61138e816110ce565b811461139957600080fd5b50565b6113a5816110f8565b81146113b057600080fd5b5056fea264697066735822122075afb11a0cd42df397c480a7a194efaf6228d6b932f3411f0058e7e8d01e03f864736f6c63430008070033",
					"opcodes": "PUSH1 0x80 PUSH1 0x40 MSTORE CALLVALUE DUP1 ISZERO PUSH2 0x10 JUMPI PUSH1 0x0 DUP1 REVERT JUMPDEST POP CALLER PUSH1 0x0 DUP1 PUSH2 0x100 EXP DUP2 SLOAD DUP2 PUSH20 0xFFFFFFFFFFFFFFFFFFFFFFFFFFFFFFFFFFFFFFFF MUL NOT AND SWAP1 DUP4 PUSH20 0xFFFFFFFFFFFFFFFFFFFFFFFFFFFFFFFFFFFFFFFF AND MUL OR SWAP1 SSTORE POP PUSH2 0x13E9 DUP1 PUSH2 0x60 PUSH1 0x0 CODECOPY PUSH1 0x0 RETURN INVALID PUSH1 0x80 PUSH1 0x40 MSTORE PUSH1 0x4 CALLDATASIZE LT PUSH2 0x7B JUMPI PUSH1 0x0 CALLDATALOAD PUSH1 0xE0 SHR DUP1 PUSH4 0x50E16EB5 GT PUSH2 0x4E JUMPI DUP1 PUSH4 0x50E16EB5 EQ PUSH2 0x105 JUMPI DUP1 PUSH4 0x540D0DE7 EQ PUSH2 0x121 JUMPI DUP1 PUSH4 0x640238B4 EQ PUSH2 0x14A JUMPI DUP1 PUSH4 0x8D859F3E EQ PUSH2 0x173 JUMPI PUSH2 0x7B JUMP JUMPDEST DUP1 PUSH4 0x1249C58B EQ PUSH2 0x80 JUMPI DUP1 PUSH4 0x26A88685 EQ PUSH2 0x8A JUMPI DUP1 PUSH4 0x2866A38B EQ PUSH2 0xB3 JUMPI DUP1 PUSH4 0x3F8C6138 EQ PUSH2 0xDC JUMPI JUMPDEST PUSH1 0x0 DUP1 REVERT JUMPDEST PUSH2 0x88 PUSH2 0x19E JUMP JUMPDEST STOP JUMPDEST CALLVALUE DUP1 ISZERO PUSH2 0x96 JUMPI PUSH1 0x0 DUP1 REVERT JUMPDEST POP PUSH2 0xB1 PUSH1 0x4 DUP1 CALLDATASIZE SUB DUP2 ADD SWAP1 PUSH2 0xAC SWAP2 SWAP1 PUSH2 0xD2B JUMP JUMPDEST PUSH2 0x2B9 JUMP JUMPDEST STOP JUMPDEST CALLVALUE DUP1 ISZERO PUSH2 0xBF JUMPI PUSH1 0x0 DUP1 REVERT JUMPDEST POP PUSH2 0xDA PUSH1 0x4 DUP1 CALLDATASIZE SUB DUP2 ADD SWAP1 PUSH2 0xD5 SWAP2 SWAP1 PUSH2 0xCBE JUMP JUMPDEST PUSH2 0x4A2 JUMP JUMPDEST STOP JUMPDEST CALLVALUE DUP1 ISZERO PUSH2 0xE8 JUMPI PUSH1 0x0 DUP1 REVERT JUMPDEST POP PUSH2 0x103 PUSH1 0x4 DUP1 CALLDATASIZE SUB DUP2 ADD SWAP1 PUSH2 0xFE SWAP2 SWAP1 PUSH2 0xD2B JUMP JUMPDEST PUSH2 0x4FC JUMP JUMPDEST STOP JUMPDEST PUSH2 0x11F PUSH1 0x4 DUP1 CALLDATASIZE SUB DUP2 ADD SWAP1 PUSH2 0x11A SWAP2 SWAP1 PUSH2 0xCFE JUMP JUMPDEST PUSH2 0x794 JUMP JUMPDEST STOP JUMPDEST CALLVALUE DUP1 ISZERO PUSH2 0x12D JUMPI PUSH1 0x0 DUP1 REVERT JUMPDEST POP PUSH2 0x148 PUSH1 0x4 DUP1 CALLDATASIZE SUB DUP2 ADD SWAP1 PUSH2 0x143 SWAP2 SWAP1 PUSH2 0xD2B JUMP JUMPDEST PUSH2 0x925 JUMP JUMPDEST STOP JUMPDEST CALLVALUE DUP1 ISZERO PUSH2 0x156 JUMPI PUSH1 0x0 DUP1 REVERT JUMPDEST POP PUSH2 0x171 PUSH1 0x4 DUP1 CALLDATASIZE SUB DUP2 ADD SWAP1 PUSH2 0x16C SWAP2 SWAP1 PUSH2 0xD2B JUMP JUMPDEST PUSH2 0xA17 JUMP JUMPDEST STOP JUMPDEST CALLVALUE DUP1 ISZERO PUSH2 0x17F JUMPI PUSH1 0x0 DUP1 REVERT JUMPDEST POP PUSH2 0x188 PUSH2 0xC74 JUMP JUMPDEST PUSH1 0x40 MLOAD PUSH2 0x195 SWAP2 SWAP1 PUSH2 0xFD5 JUMP JUMPDEST PUSH1 0x40 MLOAD DUP1 SWAP2 SUB SWAP1 RETURN JUMPDEST PUSH7 0x38D7EA4C68000 CALLVALUE LT ISZERO PUSH2 0x1E8 JUMPI PUSH1 0x40 MLOAD PUSH32 0x8C379A000000000000000000000000000000000000000000000000000000000 DUP2 MSTORE PUSH1 0x4 ADD PUSH2 0x1DF SWAP1 PUSH2 0xF35 JUMP JUMPDEST PUSH1 0x40 MLOAD DUP1 SWAP2 SUB SWAP1 REVERT JUMPDEST PUSH7 0x38D7EA4C68000 CALLVALUE PUSH2 0x1FB SWAP2 SWAP1 PUSH2 0x1057 JUMP JUMPDEST PUSH1 0x1 PUSH1 0x0 CALLER PUSH20 0xFFFFFFFFFFFFFFFFFFFFFFFFFFFFFFFFFFFFFFFF AND PUSH20 0xFFFFFFFFFFFFFFFFFFFFFFFFFFFFFFFFFFFFFFFF AND DUP2 MSTORE PUSH1 0x20 ADD SWAP1 DUP2 MSTORE PUSH1 0x20 ADD PUSH1 0x0 KECCAK256 PUSH1 0x0 DUP3 DUP3 SLOAD PUSH2 0x249 SWAP2 SWAP1 PUSH2 0x1001 JUMP JUMPDEST SWAP3 POP POP DUP2 SWAP1 SSTORE POP PUSH1 0x0 DUP1 SLOAD SWAP1 PUSH2 0x100 EXP SWAP1 DIV PUSH20 0xFFFFFFFFFFFFFFFFFFFFFFFFFFFFFFFFFFFFFFFF AND PUSH20 0xFFFFFFFFFFFFFFFFFFFFFFFFFFFFFFFFFFFFFFFF AND PUSH2 0x8FC CALLVALUE SWAP1 DUP2 ISZERO MUL SWAP1 PUSH1 0x40 MLOAD PUSH1 0x0 PUSH1 0x40 MLOAD DUP1 DUP4 SUB DUP2 DUP6 DUP9 DUP9 CALL SWAP4 POP POP POP POP ISZERO DUP1 ISZERO PUSH2 0x2B6 JUMPI RETURNDATASIZE PUSH1 0x0 DUP1 RETURNDATACOPY RETURNDATASIZE PUSH1 0x0 REVERT JUMPDEST POP JUMP JUMPDEST PUSH1 0x0 DUP1 SLOAD SWAP1 PUSH2 0x100 EXP SWAP1 DIV PUSH20 0xFFFFFFFFFFFFFFFFFFFFFFFFFFFFFFFFFFFFFFFF AND PUSH20 0xFFFFFFFFFFFFFFFFFFFFFFFFFFFFFFFFFFFFFFFF AND CALLER PUSH20 0xFFFFFFFFFFFFFFFFFFFFFFFFFFFFFFFFFFFFFFFF AND EQ PUSH2 0x347 JUMPI PUSH1 0x40 MLOAD PUSH32 0x8C379A000000000000000000000000000000000000000000000000000000000 DUP2 MSTORE PUSH1 0x4 ADD PUSH2 0x33E SWAP1 PUSH2 0xED5 JUMP JUMPDEST PUSH1 0x40 MLOAD DUP1 SWAP2 SUB SWAP1 REVERT JUMPDEST PUSH1 0x0 DUP1 SHL PUSH1 0x3 PUSH1 0x0 DUP5 DUP2 MSTORE PUSH1 0x20 ADD SWAP1 DUP2 MSTORE PUSH1 0x20 ADD PUSH1 0x0 KECCAK256 PUSH1 0x0 ADD SLOAD EQ PUSH2 0x3A2 JUMPI PUSH1 0x40 MLOAD PUSH32 0x8C379A000000000000000000000000000000000000000000000000000000000 DUP2 MSTORE PUSH1 0x4 ADD PUSH2 0x399 SWAP1 PUSH2 0xF55 JUMP JUMPDEST PUSH1 0x40 MLOAD DUP1 SWAP2 SUB SWAP1 REVERT JUMPDEST PUSH1 0x40 MLOAD DUP1 PUSH1 0xA0 ADD PUSH1 0x40 MSTORE DUP1 DUP4 DUP2 MSTORE PUSH1 0x20 ADD PUSH1 0x0 ISZERO ISZERO DUP2 MSTORE PUSH1 0x20 ADD DUP3 DUP2 MSTORE PUSH1 0x20 ADD PUSH1 0x0 DUP2 MSTORE PUSH1 0x20 ADD PUSH1 0x0 DUP1 SLOAD SWAP1 PUSH2 0x100 EXP SWAP1 DIV PUSH20 0xFFFFFFFFFFFFFFFFFFFFFFFFFFFFFFFFFFFFFFFF AND PUSH20 0xFFFFFFFFFFFFFFFFFFFFFFFFFFFFFFFFFFFFFFFF AND DUP2 MSTORE POP PUSH1 0x3 PUSH1 0x0 DUP5 DUP2 MSTORE PUSH1 0x20 ADD SWAP1 DUP2 MSTORE PUSH1 0x20 ADD PUSH1 0x0 KECCAK256 PUSH1 0x0 DUP3 ADD MLOAD DUP2 PUSH1 0x0 ADD SSTORE PUSH1 0x20 DUP3 ADD MLOAD DUP2 PUSH1 0x1 ADD PUSH1 0x0 PUSH2 0x100 EXP DUP2 SLOAD DUP2 PUSH1 0xFF MUL NOT AND SWAP1 DUP4 ISZERO ISZERO MUL OR SWAP1 SSTORE POP PUSH1 0x40 DUP3 ADD MLOAD DUP2 PUSH1 0x2 ADD SSTORE PUSH1 0x60 DUP3 ADD MLOAD DUP2 PUSH1 0x3 ADD SSTORE PUSH1 0x80 DUP3 ADD MLOAD DUP2 PUSH1 0x4 ADD PUSH1 0x0 PUSH2 0x100 EXP DUP2 SLOAD DUP2 PUSH20 0xFFFFFFFFFFFFFFFFFFFFFFFFFFFFFFFFFFFFFFFF MUL NOT AND SWAP1 DUP4 PUSH20 0xFFFFFFFFFFFFFFFFFFFFFFFFFFFFFFFFFFFFFFFF AND MUL OR SWAP1 SSTORE POP SWAP1 POP POP POP POP JUMP JUMPDEST DUP1 PUSH1 0x2 PUSH1 0x0 DUP5 PUSH20 0xFFFFFFFFFFFFFFFFFFFFFFFFFFFFFFFFFFFFFFFF AND PUSH20 0xFFFFFFFFFFFFFFFFFFFFFFFFFFFFFFFFFFFFFFFF AND DUP2 MSTORE PUSH1 0x20 ADD SWAP1 DUP2 MSTORE PUSH1 0x20 ADD PUSH1 0x0 KECCAK256 PUSH1 0x0 DUP3 DUP3 SLOAD PUSH2 0x4F1 SWAP2 SWAP1 PUSH2 0x1001 JUMP JUMPDEST SWAP3 POP POP DUP2 SWAP1 SSTORE POP POP POP JUMP JUMPDEST PUSH1 0x0 DUP1 SLOAD SWAP1 PUSH2 0x100 EXP SWAP1 DIV PUSH20 0xFFFFFFFFFFFFFFFFFFFFFFFFFFFFFFFFFFFFFFFF AND PUSH20 0xFFFFFFFFFFFFFFFFFFFFFFFFFFFFFFFFFFFFFFFF AND PUSH1 0x3 PUSH1 0x0 DUP5 DUP2 MSTORE PUSH1 0x20 ADD SWAP1 DUP2 MSTORE PUSH1 0x20 ADD PUSH1 0x0 KECCAK256 PUSH1 0x4 ADD PUSH1 0x0 SWAP1 SLOAD SWAP1 PUSH2 0x100 EXP SWAP1 DIV PUSH20 0xFFFFFFFFFFFFFFFFFFFFFFFFFFFFFFFFFFFFFFFF AND PUSH20 0xFFFFFFFFFFFFFFFFFFFFFFFFFFFFFFFFFFFFFFFF AND EQ PUSH2 0x5C0 JUMPI PUSH1 0x40 MLOAD PUSH32 0x8C379A000000000000000000000000000000000000000000000000000000000 DUP2 MSTORE PUSH1 0x4 ADD PUSH2 0x5B7 SWAP1 PUSH2 0xF75 JUMP JUMPDEST PUSH1 0x40 MLOAD DUP1 SWAP2 SUB SWAP1 REVERT JUMPDEST PUSH1 0x3 PUSH1 0x0 DUP4 DUP2 MSTORE PUSH1 0x20 ADD SWAP1 DUP2 MSTORE PUSH1 0x20 ADD PUSH1 0x0 KECCAK256 PUSH1 0x2 ADD SLOAD PUSH1 0x2 PUSH1 0x0 CALLER PUSH20 0xFFFFFFFFFFFFFFFFFFFFFFFFFFFFFFFFFFFFFFFF AND PUSH20 0xFFFFFFFFFFFFFFFFFFFFFFFFFFFFFFFFFFFFFFFF AND DUP2 MSTORE PUSH1 0x20 ADD SWAP1 DUP2 MSTORE PUSH1 0x20 ADD PUSH1 0x0 KECCAK256 SLOAD LT ISZERO PUSH2 0x658 JUMPI PUSH1 0x40 MLOAD PUSH32 0x8C379A000000000000000000000000000000000000000000000000000000000 DUP2 MSTORE PUSH1 0x4 ADD PUSH2 0x64F SWAP1 PUSH2 0xF95 JUMP JUMPDEST PUSH1 0x40 MLOAD DUP1 SWAP2 SUB SWAP1 REVERT JUMPDEST PUSH1 0x3 PUSH1 0x0 DUP4 DUP2 MSTORE PUSH1 0x20 ADD SWAP1 DUP2 MSTORE PUSH1 0x20 ADD PUSH1 0x0 KECCAK256 PUSH1 0x2 ADD SLOAD PUSH1 0x2 PUSH1 0x0 CALLER PUSH20 0xFFFFFFFFFFFFFFFFFFFFFFFFFFFFFFFFFFFFFFFF AND PUSH20 0xFFFFFFFFFFFFFFFFFFFFFFFFFFFFFFFFFFFFFFFF AND DUP2 MSTORE PUSH1 0x20 ADD SWAP1 DUP2 MSTORE PUSH1 0x20 ADD PUSH1 0x0 KECCAK256 PUSH1 0x0 DUP3 DUP3 SLOAD PUSH2 0x6BD SWAP2 SWAP1 PUSH2 0x1088 JUMP JUMPDEST SWAP3 POP POP DUP2 SWAP1 SSTORE POP CALLER PUSH1 0x3 PUSH1 0x0 DUP5 DUP2 MSTORE PUSH1 0x20 ADD SWAP1 DUP2 MSTORE PUSH1 0x20 ADD PUSH1 0x0 KECCAK256 PUSH1 0x4 ADD PUSH1 0x0 PUSH2 0x100 EXP DUP2 SLOAD DUP2 PUSH20 0xFFFFFFFFFFFFFFFFFFFFFFFFFFFFFFFFFFFFFFFF MUL NOT AND SWAP1 DUP4 PUSH20 0xFFFFFFFFFFFFFFFFFFFFFFFFFFFFFFFFFFFFFFFF AND MUL OR SWAP1 SSTORE POP PUSH1 0x0 DUP2 EQ ISZERO PUSH1 0x3 PUSH1 0x0 DUP5 DUP2 MSTORE PUSH1 0x20 ADD SWAP1 DUP2 MSTORE PUSH1 0x20 ADD PUSH1 0x0 KECCAK256 PUSH1 0x1 ADD PUSH1 0x0 PUSH2 0x100 EXP DUP2 SLOAD DUP2 PUSH1 0xFF MUL NOT AND SWAP1 DUP4 ISZERO ISZERO MUL OR SWAP1 SSTORE POP PUSH1 0x3 PUSH1 0x0 DUP4 DUP2 MSTORE PUSH1 0x20 ADD SWAP1 DUP2 MSTORE PUSH1 0x20 ADD PUSH1 0x0 KECCAK256 PUSH1 0x1 ADD PUSH1 0x0 SWAP1 SLOAD SWAP1 PUSH2 0x100 EXP SWAP1 DIV PUSH1 0xFF AND ISZERO PUSH2 0x790 JUMPI DUP1 PUSH1 0x3 PUSH1 0x0 DUP5 DUP2 MSTORE PUSH1 0x20 ADD SWAP1 DUP2 MSTORE PUSH1 0x20 ADD PUSH1 0x0 KECCAK256 PUSH1 0x3 ADD DUP2 SWAP1 SSTORE POP JUMPDEST POP POP JUMP JUMPDEST PUSH1 0x3 PUSH1 0x0 DUP3 DUP2 MSTORE PUSH1 0x20 ADD SWAP1 DUP2 MSTORE PUSH1 0x20 ADD PUSH1 0x0 KECCAK256 PUSH1 0x1 ADD PUSH1 0x0 SWAP1 SLOAD SWAP1 PUSH2 0x100 EXP SWAP1 DIV PUSH1 0xFF AND PUSH2 0x7F7 JUMPI PUSH1 0x40 MLOAD PUSH32 0x8C379A000000000000000000000000000000000000000000000000000000000 DUP2 MSTORE PUSH1 0x4 ADD PUSH2 0x7EE SWAP1 PUSH2 0xFB5 JUMP JUMPDEST PUSH1 0x40 MLOAD DUP1 SWAP2 SUB SWAP1 REVERT JUMPDEST PUSH1 0x3 PUSH1 0x0 DUP3 DUP2 MSTORE PUSH1 0x20 ADD SWAP1 DUP2 MSTORE PUSH1 0x20 ADD PUSH1 0x0 KECCAK256 PUSH1 0x3 ADD SLOAD CALLVALUE LT ISZERO PUSH2 0x850 JUMPI PUSH1 0x40 MLOAD PUSH32 0x8C379A000000000000000000000000000000000000000000000000000000000 DUP2 MSTORE PUSH1 0x4 ADD PUSH2 0x847 SWAP1 PUSH2 0xF15 JUMP JUMPDEST PUSH1 0x40 MLOAD DUP1 SWAP2 SUB SWAP1 REVERT JUMPDEST PUSH1 0x3 PUSH1 0x0 DUP3 DUP2 MSTORE PUSH1 0x20 ADD SWAP1 DUP2 MSTORE PUSH1 0x20 ADD PUSH1 0x0 KECCAK256 PUSH1 0x4 ADD PUSH1 0x0 SWAP1 SLOAD SWAP1 PUSH2 0x100 EXP SWAP1 DIV PUSH20 0xFFFFFFFFFFFFFFFFFFFFFFFFFFFFFFFFFFFFFFFF AND PUSH20 0xFFFFFFFFFFFFFFFFFFFFFFFFFFFFFFFFFFFFFFFF AND PUSH2 0x8FC CALLVALUE SWAP1 DUP2 ISZERO MUL SWAP1 PUSH1 0x40 MLOAD PUSH1 0x0 PUSH1 0x40 MLOAD DUP1 DUP4 SUB DUP2 DUP6 DUP9 DUP9 CALL SWAP4 POP POP POP POP ISZERO DUP1 ISZERO PUSH2 0x8CC JUMPI RETURNDATASIZE PUSH1 0x0 DUP1 RETURNDATACOPY RETURNDATASIZE PUSH1 0x0 REVERT JUMPDEST POP CALLER PUSH1 0x3 PUSH1 0x0 DUP4 DUP2 MSTORE PUSH1 0x20 ADD SWAP1 DUP2 MSTORE PUSH1 0x20 ADD PUSH1 0x0 KECCAK256 PUSH1 0x4 ADD PUSH1 0x0 PUSH2 0x100 EXP DUP2 SLOAD DUP2 PUSH20 0xFFFFFFFFFFFFFFFFFFFFFFFFFFFFFFFFFFFFFFFF MUL NOT AND SWAP1 DUP4 PUSH20 0xFFFFFFFFFFFFFFFFFFFFFFFFFFFFFFFFFFFFFFFF AND MUL OR SWAP1 SSTORE POP POP JUMP JUMPDEST PUSH1 0x3 PUSH1 0x0 DUP4 DUP2 MSTORE PUSH1 0x20 ADD SWAP1 DUP2 MSTORE PUSH1 0x20 ADD PUSH1 0x0 KECCAK256 PUSH1 0x4 ADD PUSH1 0x0 SWAP1 SLOAD SWAP1 PUSH2 0x100 EXP SWAP1 DIV PUSH20 0xFFFFFFFFFFFFFFFFFFFFFFFFFFFFFFFFFFFFFFFF AND PUSH20 0xFFFFFFFFFFFFFFFFFFFFFFFFFFFFFFFFFFFFFFFF AND CALLER PUSH20 0xFFFFFFFFFFFFFFFFFFFFFFFFFFFFFFFFFFFFFFFF AND EQ PUSH2 0x9C9 JUMPI PUSH1 0x40 MLOAD PUSH32 0x8C379A000000000000000000000000000000000000000000000000000000000 DUP2 MSTORE PUSH1 0x4 ADD PUSH2 0x9C0 SWAP1 PUSH2 0xEB5 JUMP JUMPDEST PUSH1 0x40 MLOAD DUP1 SWAP2 SUB SWAP1 REVERT JUMPDEST DUP1 PUSH1 0x3 PUSH1 0x0 DUP5 DUP2 MSTORE PUSH1 0x20 ADD SWAP1 DUP2 MSTORE PUSH1 0x20 ADD PUSH1 0x0 KECCAK256 PUSH1 0x3 ADD DUP2 SWAP1 SSTORE POP PUSH1 0x1 PUSH1 0x3 PUSH1 0x0 DUP5 DUP2 MSTORE PUSH1 0x20 ADD SWAP1 DUP2 MSTORE PUSH1 0x20 ADD PUSH1 0x0 KECCAK256 PUSH1 0x1 ADD PUSH1 0x0 PUSH2 0x100 EXP DUP2 SLOAD DUP2 PUSH1 0xFF MUL NOT AND SWAP1 DUP4 ISZERO ISZERO MUL OR SWAP1 SSTORE POP POP POP JUMP JUMPDEST DUP1 PUSH1 0x2 PUSH1 0x0 CALLER PUSH20 0xFFFFFFFFFFFFFFFFFFFFFFFFFFFFFFFFFFFFFFFF AND PUSH20 0xFFFFFFFFFFFFFFFFFFFFFFFFFFFFFFFFFFFFFFFF AND DUP2 MSTORE PUSH1 0x20 ADD SWAP1 DUP2 MSTORE PUSH1 0x20 ADD PUSH1 0x0 KECCAK256 SLOAD PUSH1 0x1 PUSH1 0x0 CALLER PUSH20 0xFFFFFFFFFFFFFFFFFFFFFFFFFFFFFFFFFFFFFFFF AND PUSH20 0xFFFFFFFFFFFFFFFFFFFFFFFFFFFFFFFFFFFFFFFF AND DUP2 MSTORE PUSH1 0x20 ADD SWAP1 DUP2 MSTORE PUSH1 0x20 ADD PUSH1 0x0 KECCAK256 SLOAD PUSH2 0xAA2 SWAP2 SWAP1 PUSH2 0x1001 JUMP JUMPDEST LT ISZERO PUSH2 0xAE3 JUMPI PUSH1 0x40 MLOAD PUSH32 0x8C379A000000000000000000000000000000000000000000000000000000000 DUP2 MSTORE PUSH1 0x4 ADD PUSH2 0xADA SWAP1 PUSH2 0xEF5 JUMP JUMPDEST PUSH1 0x40 MLOAD DUP1 SWAP2 SUB SWAP1 REVERT JUMPDEST DUP1 PUSH1 0x1 PUSH1 0x0 CALLER PUSH20 0xFFFFFFFFFFFFFFFFFFFFFFFFFFFFFFFFFFFFFFFF AND PUSH20 0xFFFFFFFFFFFFFFFFFFFFFFFFFFFFFFFFFFFFFFFF AND DUP2 MSTORE PUSH1 0x20 ADD SWAP1 DUP2 MSTORE PUSH1 0x20 ADD PUSH1 0x0 KECCAK256 SLOAD LT PUSH2 0xB84 JUMPI DUP1 PUSH1 0x1 PUSH1 0x0 CALLER PUSH20 0xFFFFFFFFFFFFFFFFFFFFFFFFFFFFFFFFFFFFFFFF AND PUSH20 0xFFFFFFFFFFFFFFFFFFFFFFFFFFFFFFFFFFFFFFFF AND DUP2 MSTORE PUSH1 0x20 ADD SWAP1 DUP2 MSTORE PUSH1 0x20 ADD PUSH1 0x0 KECCAK256 PUSH1 0x0 DUP3 DUP3 SLOAD PUSH2 0xB78 SWAP2 SWAP1 PUSH2 0x1088 JUMP JUMPDEST SWAP3 POP POP DUP2 SWAP1 SSTORE POP PUSH2 0xC70 JUMP JUMPDEST PUSH1 0x0 PUSH1 0x1 PUSH1 0x0 CALLER PUSH20 0xFFFFFFFFFFFFFFFFFFFFFFFFFFFFFFFFFFFFFFFF AND PUSH20 0xFFFFFFFFFFFFFFFFFFFFFFFFFFFFFFFFFFFFFFFF AND DUP2 MSTORE PUSH1 0x20 ADD SWAP1 DUP2 MSTORE PUSH1 0x20 ADD PUSH1 0x0 KECCAK256 SLOAD DUP3 PUSH2 0xBD1 SWAP2 SWAP1 PUSH2 0x1088 JUMP JUMPDEST SWAP1 POP PUSH1 0x0 PUSH1 0x1 PUSH1 0x0 CALLER PUSH20 0xFFFFFFFFFFFFFFFFFFFFFFFFFFFFFFFFFFFFFFFF AND PUSH20 0xFFFFFFFFFFFFFFFFFFFFFFFFFFFFFFFFFFFFFFFF AND DUP2 MSTORE PUSH1 0x20 ADD SWAP1 DUP2 MSTORE PUSH1 0x20 ADD PUSH1 0x0 KECCAK256 DUP2 SWAP1 SSTORE POP DUP1 PUSH1 0x2 PUSH1 0x0 CALLER PUSH20 0xFFFFFFFFFFFFFFFFFFFFFFFFFFFFFFFFFFFFFFFF AND PUSH20 0xFFFFFFFFFFFFFFFFFFFFFFFFFFFFFFFFFFFFFFFF AND DUP2 MSTORE PUSH1 0x20 ADD SWAP1 DUP2 MSTORE PUSH1 0x20 ADD PUSH1 0x0 KECCAK256 PUSH1 0x0 DUP3 DUP3 SLOAD PUSH2 0xC67 SWAP2 SWAP1 PUSH2 0x1088 JUMP JUMPDEST SWAP3 POP POP DUP2 SWAP1 SSTORE POP POP JUMPDEST POP POP JUMP JUMPDEST PUSH7 0x38D7EA4C68000 DUP2 JUMP JUMPDEST PUSH1 0x0 DUP2 CALLDATALOAD SWAP1 POP PUSH2 0xC8E DUP2 PUSH2 0x136E JUMP JUMPDEST SWAP3 SWAP2 POP POP JUMP JUMPDEST PUSH1 0x0 DUP2 CALLDATALOAD SWAP1 POP PUSH2 0xCA3 DUP2 PUSH2 0x1385 JUMP JUMPDEST SWAP3 SWAP2 POP POP JUMP JUMPDEST PUSH1 0x0 DUP2 CALLDATALOAD SWAP1 POP PUSH2 0xCB8 DUP2 PUSH2 0x139C JUMP JUMPDEST SWAP3 SWAP2 POP POP JUMP JUMPDEST PUSH1 0x0 DUP1 PUSH1 0x40 DUP4 DUP6 SUB SLT ISZERO PUSH2 0xCD5 JUMPI PUSH2 0xCD4 PUSH2 0x1160 JUMP JUMPDEST JUMPDEST PUSH1 0x0 PUSH2 0xCE3 DUP6 DUP3 DUP7 ADD PUSH2 0xC7F JUMP JUMPDEST SWAP3 POP POP PUSH1 0x20 PUSH2 0xCF4 DUP6 DUP3 DUP7 ADD PUSH2 0xCA9 JUMP JUMPDEST SWAP2 POP POP SWAP3 POP SWAP3 SWAP1 POP JUMP JUMPDEST PUSH1 0x0 PUSH1 0x20 DUP3 DUP5 SUB SLT ISZERO PUSH2 0xD14 JUMPI PUSH2 0xD13 PUSH2 0x1160 JUMP JUMPDEST JUMPDEST PUSH1 0x0 PUSH2 0xD22 DUP5 DUP3 DUP6 ADD PUSH2 0xC94 JUMP JUMPDEST SWAP2 POP POP SWAP3 SWAP2 POP POP JUMP JUMPDEST PUSH1 0x0 DUP1 PUSH1 0x40 DUP4 DUP6 SUB SLT ISZERO PUSH2 0xD42 JUMPI PUSH2 0xD41 PUSH2 0x1160 JUMP JUMPDEST JUMPDEST PUSH1 0x0 PUSH2 0xD50 DUP6 DUP3 DUP7 ADD PUSH2 0xC94 JUMP JUMPDEST SWAP3 POP POP PUSH1 0x20 PUSH2 0xD61 DUP6 DUP3 DUP7 ADD PUSH2 0xCA9 JUMP JUMPDEST SWAP2 POP POP SWAP3 POP SWAP3 SWAP1 POP JUMP JUMPDEST PUSH1 0x0 PUSH2 0xD78 PUSH1 0x23 DUP4 PUSH2 0xFF0 JUMP JUMPDEST SWAP2 POP PUSH2 0xD83 DUP3 PUSH2 0x1165 JUMP JUMPDEST PUSH1 0x40 DUP3 ADD SWAP1 POP SWAP2 SWAP1 POP JUMP JUMPDEST PUSH1 0x0 PUSH2 0xD9B PUSH1 0x1E DUP4 PUSH2 0xFF0 JUMP JUMPDEST SWAP2 POP PUSH2 0xDA6 DUP3 PUSH2 0x11B4 JUMP JUMPDEST PUSH1 0x20 DUP3 ADD SWAP1 POP SWAP2 SWAP1 POP JUMP JUMPDEST PUSH1 0x0 PUSH2 0xDBE PUSH1 0x15 DUP4 PUSH2 0xFF0 JUMP JUMPDEST SWAP2 POP PUSH2 0xDC9 DUP3 PUSH2 0x11DD JUMP JUMPDEST PUSH1 0x20 DUP3 ADD SWAP1 POP SWAP2 SWAP1 POP JUMP JUMPDEST PUSH1 0x0 PUSH2 0xDE1 PUSH1 0x24 DUP4 PUSH2 0xFF0 JUMP JUMPDEST SWAP2 POP PUSH2 0xDEC DUP3 PUSH2 0x1206 JUMP JUMPDEST PUSH1 0x40 DUP3 ADD SWAP1 POP SWAP2 SWAP1 POP JUMP JUMPDEST PUSH1 0x0 PUSH2 0xE04 PUSH1 0xE DUP4 PUSH2 0xFF0 JUMP JUMPDEST SWAP2 POP PUSH2 0xE0F DUP3 PUSH2 0x1255 JUMP JUMPDEST PUSH1 0x20 DUP3 ADD SWAP1 POP SWAP2 SWAP1 POP JUMP JUMPDEST PUSH1 0x0 PUSH2 0xE27 PUSH1 0x16 DUP4 PUSH2 0xFF0 JUMP JUMPDEST SWAP2 POP PUSH2 0xE32 DUP3 PUSH2 0x127E JUMP JUMPDEST PUSH1 0x20 DUP3 ADD SWAP1 POP SWAP2 SWAP1 POP JUMP JUMPDEST PUSH1 0x0 PUSH2 0xE4A PUSH1 0x37 DUP4 PUSH2 0xFF0 JUMP JUMPDEST SWAP2 POP PUSH2 0xE55 DUP3 PUSH2 0x12A7 JUMP JUMPDEST PUSH1 0x40 DUP3 ADD SWAP1 POP SWAP2 SWAP1 POP JUMP JUMPDEST PUSH1 0x0 PUSH2 0xE6D PUSH1 0x35 DUP4 PUSH2 0xFF0 JUMP JUMPDEST SWAP2 POP PUSH2 0xE78 DUP3 PUSH2 0x12F6 JUMP JUMPDEST PUSH1 0x40 DUP3 ADD SWAP1 POP SWAP2 SWAP1 POP JUMP JUMPDEST PUSH1 0x0 PUSH2 0xE90 PUSH1 0x19 DUP4 PUSH2 0xFF0 JUMP JUMPDEST SWAP2 POP PUSH2 0xE9B DUP3 PUSH2 0x1345 JUMP JUMPDEST PUSH1 0x20 DUP3 ADD SWAP1 POP SWAP2 SWAP1 POP JUMP JUMPDEST PUSH2 0xEAF DUP2 PUSH2 0x10F8 JUMP JUMPDEST DUP3 MSTORE POP POP JUMP JUMPDEST PUSH1 0x0 PUSH1 0x20 DUP3 ADD SWAP1 POP DUP2 DUP2 SUB PUSH1 0x0 DUP4 ADD MSTORE PUSH2 0xECE DUP2 PUSH2 0xD6B JUMP JUMPDEST SWAP1 POP SWAP2 SWAP1 POP JUMP JUMPDEST PUSH1 0x0 PUSH1 0x20 DUP3 ADD SWAP1 POP DUP2 DUP2 SUB PUSH1 0x0 DUP4 ADD MSTORE PUSH2 0xEEE DUP2 PUSH2 0xD8E JUMP JUMPDEST SWAP1 POP SWAP2 SWAP1 POP JUMP JUMPDEST PUSH1 0x0 PUSH1 0x20 DUP3 ADD SWAP1 POP DUP2 DUP2 SUB PUSH1 0x0 DUP4 ADD MSTORE PUSH2 0xF0E DUP2 PUSH2 0xDB1 JUMP JUMPDEST SWAP1 POP SWAP2 SWAP1 POP JUMP JUMPDEST PUSH1 0x0 PUSH1 0x20 DUP3 ADD SWAP1 POP DUP2 DUP2 SUB PUSH1 0x0 DUP4 ADD MSTORE PUSH2 0xF2E DUP2 PUSH2 0xDD4 JUMP JUMPDEST SWAP1 POP SWAP2 SWAP1 POP JUMP JUMPDEST PUSH1 0x0 PUSH1 0x20 DUP3 ADD SWAP1 POP DUP2 DUP2 SUB PUSH1 0x0 DUP4 ADD MSTORE PUSH2 0xF4E DUP2 PUSH2 0xDF7 JUMP JUMPDEST SWAP1 POP SWAP2 SWAP1 POP JUMP JUMPDEST PUSH1 0x0 PUSH1 0x20 DUP3 ADD SWAP1 POP DUP2 DUP2 SUB PUSH1 0x0 DUP4 ADD MSTORE PUSH2 0xF6E DUP2 PUSH2 0xE1A JUMP JUMPDEST SWAP1 POP SWAP2 SWAP1 POP JUMP JUMPDEST PUSH1 0x0 PUSH1 0x20 DUP3 ADD SWAP1 POP DUP2 DUP2 SUB PUSH1 0x0 DUP4 ADD MSTORE PUSH2 0xF8E DUP2 PUSH2 0xE3D JUMP JUMPDEST SWAP1 POP SWAP2 SWAP1 POP JUMP JUMPDEST PUSH1 0x0 PUSH1 0x20 DUP3 ADD SWAP1 POP DUP2 DUP2 SUB PUSH1 0x0 DUP4 ADD MSTORE PUSH2 0xFAE DUP2 PUSH2 0xE60 JUMP JUMPDEST SWAP1 POP SWAP2 SWAP1 POP JUMP JUMPDEST PUSH1 0x0 PUSH1 0x20 DUP3 ADD SWAP1 POP DUP2 DUP2 SUB PUSH1 0x0 DUP4 ADD MSTORE PUSH2 0xFCE DUP2 PUSH2 0xE83 JUMP JUMPDEST SWAP1 POP SWAP2 SWAP1 POP JUMP JUMPDEST PUSH1 0x0 PUSH1 0x20 DUP3 ADD SWAP1 POP PUSH2 0xFEA PUSH1 0x0 DUP4 ADD DUP5 PUSH2 0xEA6 JUMP JUMPDEST SWAP3 SWAP2 POP POP JUMP JUMPDEST PUSH1 0x0 DUP3 DUP3 MSTORE PUSH1 0x20 DUP3 ADD SWAP1 POP SWAP3 SWAP2 POP POP JUMP JUMPDEST PUSH1 0x0 PUSH2 0x100C DUP3 PUSH2 0x10F8 JUMP JUMPDEST SWAP2 POP PUSH2 0x1017 DUP4 PUSH2 0x10F8 JUMP JUMPDEST SWAP3 POP DUP3 PUSH32 0xFFFFFFFFFFFFFFFFFFFFFFFFFFFFFFFFFFFFFFFFFFFFFFFFFFFFFFFFFFFFFFFF SUB DUP3 GT ISZERO PUSH2 0x104C JUMPI PUSH2 0x104B PUSH2 0x1102 JUMP JUMPDEST JUMPDEST DUP3 DUP3 ADD SWAP1 POP SWAP3 SWAP2 POP POP JUMP JUMPDEST PUSH1 0x0 PUSH2 0x1062 DUP3 PUSH2 0x10F8 JUMP JUMPDEST SWAP2 POP PUSH2 0x106D DUP4 PUSH2 0x10F8 JUMP JUMPDEST SWAP3 POP DUP3 PUSH2 0x107D JUMPI PUSH2 0x107C PUSH2 0x1131 JUMP JUMPDEST JUMPDEST DUP3 DUP3 DIV SWAP1 POP SWAP3 SWAP2 POP POP JUMP JUMPDEST PUSH1 0x0 PUSH2 0x1093 DUP3 PUSH2 0x10F8 JUMP JUMPDEST SWAP2 POP PUSH2 0x109E DUP4 PUSH2 0x10F8 JUMP JUMPDEST SWAP3 POP DUP3 DUP3 LT ISZERO PUSH2 0x10B1 JUMPI PUSH2 0x10B0 PUSH2 0x1102 JUMP JUMPDEST JUMPDEST DUP3 DUP3 SUB SWAP1 POP SWAP3 SWAP2 POP POP JUMP JUMPDEST PUSH1 0x0 PUSH2 0x10C7 DUP3 PUSH2 0x10D8 JUMP JUMPDEST SWAP1 POP SWAP2 SWAP1 POP JUMP JUMPDEST PUSH1 0x0 DUP2 SWAP1 POP SWAP2 SWAP1 POP JUMP JUMPDEST PUSH1 0x0 PUSH20 0xFFFFFFFFFFFFFFFFFFFFFFFFFFFFFFFFFFFFFFFF DUP3 AND SWAP1 POP SWAP2 SWAP1 POP JUMP JUMPDEST PUSH1 0x0 DUP2 SWAP1 POP SWAP2 SWAP1 POP JUMP JUMPDEST PUSH32 0x4E487B7100000000000000000000000000000000000000000000000000000000 PUSH1 0x0 MSTORE PUSH1 0x11 PUSH1 0x4 MSTORE PUSH1 0x24 PUSH1 0x0 REVERT JUMPDEST PUSH32 0x4E487B7100000000000000000000000000000000000000000000000000000000 PUSH1 0x0 MSTORE PUSH1 0x12 PUSH1 0x4 MSTORE PUSH1 0x24 PUSH1 0x0 REVERT JUMPDEST PUSH1 0x0 DUP1 REVERT JUMPDEST PUSH32 0x796F75206E65656420746F20626520746865206F776E6572206F662074686520 PUSH1 0x0 DUP3 ADD MSTORE PUSH32 0x4E46540000000000000000000000000000000000000000000000000000000000 PUSH1 0x20 DUP3 ADD MSTORE POP JUMP JUMPDEST PUSH32 0x596F7520617265206E6F742074686520636F6E7472616374206F776E65720000 PUSH1 0x0 DUP3 ADD MSTORE POP JUMP JUMPDEST PUSH32 0x596F752772652061206A65726B2C20616761696E210000000000000000000000 PUSH1 0x0 DUP3 ADD MSTORE POP JUMP JUMPDEST PUSH32 0x796F75206E65656420656E6F75676820657468657220746F2062757920746865 PUSH1 0x0 DUP3 ADD MSTORE PUSH32 0x204E465400000000000000000000000000000000000000000000000000000000 PUSH1 0x20 DUP3 ADD MSTORE POP JUMP JUMPDEST PUSH32 0x596F752772652061206A65726B21000000000000000000000000000000000000 PUSH1 0x0 DUP3 ADD MSTORE POP JUMP JUMPDEST PUSH32 0x546865204E465420616C72656164792065786973747300000000000000000000 PUSH1 0x0 DUP3 ADD MSTORE POP JUMP JUMPDEST PUSH32 0x746865204E465420686173206E65766572206265656E20676F7420627920616E PUSH1 0x0 DUP3 ADD MSTORE PUSH32 0x796F6E65202877697468207375706572546F6B656E7329000000000000000000 PUSH1 0x20 DUP3 ADD MSTORE POP JUMP JUMPDEST PUSH32 0x7468652073656E64657220686173206E6F7420656E6F75676820737570657220 PUSH1 0x0 DUP3 ADD MSTORE PUSH32 0x746F6B656E7320746F2067657420746865204E46540000000000000000000000 PUSH1 0x20 DUP3 ADD MSTORE POP JUMP JUMPDEST PUSH32 0x746865204E4654206973206E6F74206265696E6720736F6C6400000000000000 PUSH1 0x0 DUP3 ADD MSTORE POP JUMP JUMPDEST PUSH2 0x1377 DUP2 PUSH2 0x10BC JUMP JUMPDEST DUP2 EQ PUSH2 0x1382 JUMPI PUSH1 0x0 DUP1 REVERT JUMPDEST POP JUMP JUMPDEST PUSH2 0x138E DUP2 PUSH2 0x10CE JUMP JUMPDEST DUP2 EQ PUSH2 0x1399 JUMPI PUSH1 0x0 DUP1 REVERT JUMPDEST POP JUMP JUMPDEST PUSH2 0x13A5 DUP2 PUSH2 0x10F8 JUMP JUMPDEST DUP2 EQ PUSH2 0x13B0 JUMPI PUSH1 0x0 DUP1 REVERT JUMPDEST POP JUMP INVALID LOG2 PUSH5 0x6970667358 0x22 SLT KECCAK256 PUSH22 0xAFB11A0CD42DF397C480A7A194EFAF6228D6B932F341 0x1F STOP PC 0xE7 0xE8 0xD0 0x1E SUB 0xF8 PUSH5 0x736F6C6343 STOP ADDMOD SMOD STOP CALLER "
				},
				"gasEstimates": {
					"creation": {
						"codeDepositCost": "1019400",
						"executionCost": "25327",
						"totalCost": "1044727"
					},
					"external": {
						"PRICE()": "395",
						"bet(bytes32,uint256)": "infinite",
						"buy_NFT(bytes32)": "infinite",
						"forge_NFT(bytes32,uint256)": "105155",
						"get_NFT(bytes32,uint256)": "infinite",
						"mint()": "infinite",
						"pay4win(address,uint256)": "infinite",
						"sell_NFT(bytes32,uint256)": "49404"
					}
				},
				"methodIdentifiers": {
					"PRICE()": "8d859f3e",
					"bet(bytes32,uint256)": "640238b4",
					"buy_NFT(bytes32)": "50e16eb5",
					"forge_NFT(bytes32,uint256)": "26a88685",
					"get_NFT(bytes32,uint256)": "3f8c6138",
					"mint()": "1249c58b",
					"pay4win(address,uint256)": "2866a38b",
					"sell_NFT(bytes32,uint256)": "540d0de7"
				}
			},
			"storageLayout": {
				"storage": [
					{
						"astId": 8,
						"contract": "Betting.sol:DistributedBetting",
						"label": "creator",
						"offset": 0,
						"slot": "0",
						"type": "t_address_payable"
					},
					{
						"astId": 12,
						"contract": "Betting.sol:DistributedBetting",
						"label": "entryTokens",
						"offset": 0,
						"slot": "1",
						"type": "t_mapping(t_address,t_uint256)"
					},
					{
						"astId": 16,
						"contract": "Betting.sol:DistributedBetting",
						"label": "superTokens",
						"offset": 0,
						"slot": "2",
						"type": "t_mapping(t_address,t_uint256)"
					},
					{
						"astId": 32,
						"contract": "Betting.sol:DistributedBetting",
						"label": "NFTs",
						"offset": 0,
						"slot": "3",
						"type": "t_mapping(t_bytes32,t_struct(NFT)27_storage)"
					}
				],
				"types": {
					"t_address": {
						"encoding": "inplace",
						"label": "address",
						"numberOfBytes": "20"
					},
					"t_address_payable": {
						"encoding": "inplace",
						"label": "address payable",
						"numberOfBytes": "20"
					},
					"t_bool": {
						"encoding": "inplace",
						"label": "bool",
						"numberOfBytes": "1"
					},
					"t_bytes32": {
						"encoding": "inplace",
						"label": "bytes32",
						"numberOfBytes": "32"
					},
					"t_mapping(t_address,t_uint256)": {
						"encoding": "mapping",
						"key": "t_address",
						"label": "mapping(address => uint256)",
						"numberOfBytes": "32",
						"value": "t_uint256"
					},
					"t_mapping(t_bytes32,t_struct(NFT)27_storage)": {
						"encoding": "mapping",
						"key": "t_bytes32",
						"label": "mapping(bytes32 => struct DistributedBetting.NFT)",
						"numberOfBytes": "32",
						"value": "t_struct(NFT)27_storage"
					},
					"t_struct(NFT)27_storage": {
						"encoding": "inplace",
						"label": "struct DistributedBetting.NFT",
						"members": [
							{
								"astId": 18,
								"contract": "Betting.sol:DistributedBetting",
								"label": "imageHash",
								"offset": 0,
								"slot": "0",
								"type": "t_bytes32"
							},
							{
								"astId": 20,
								"contract": "Betting.sol:DistributedBetting",
								"label": "selling",
								"offset": 0,
								"slot": "1",
								"type": "t_bool"
							},
							{
								"astId": 22,
								"contract": "Betting.sol:DistributedBetting",
								"label": "superTokenPrice",
								"offset": 0,
								"slot": "2",
								"type": "t_uint256"
							},
							{
								"astId": 24,
								"contract": "Betting.sol:DistributedBetting",
								"label": "ethPrice",
								"offset": 0,
								"slot": "3",
								"type": "t_uint256"
							},
							{
								"astId": 26,
								"contract": "Betting.sol:DistributedBetting",
								"label": "owner",
								"offset": 0,
								"slot": "4",
								"type": "t_address"
							}
						],
						"numberOfBytes": "160"
					},
					"t_uint256": {
						"encoding": "inplace",
						"label": "uint256",
						"numberOfBytes": "32"
					}
				}
			},
			"userdoc": {
				"kind": "user",
				"methods": {},
				"version": 1
			}
		}
	}
}